{
  "contractName": "TokenFarm",
  "abi": [
    {
      "inputs": [
        {
          "internalType": "contract DappToken",
          "name": "_dappToken",
          "type": "address"
        },
        {
          "internalType": "contract DaiToken",
          "name": "_daiToken",
          "type": "address"
        }
      ],
      "stateMutability": "nonpayable",
      "type": "constructor"
    },
    {
      "anonymous": false,
      "inputs": [
        {
          "indexed": false,
          "internalType": "uint256",
          "name": "amount",
          "type": "uint256"
        },
        {
          "indexed": false,
          "internalType": "uint256",
          "name": "lengthInDays",
          "type": "uint256"
        }
      ],
      "name": "AddRewards",
      "type": "event"
    },
    {
      "anonymous": false,
      "inputs": [
        {
          "indexed": true,
          "internalType": "address",
          "name": "user",
          "type": "address"
        },
        {
          "indexed": false,
          "internalType": "uint256",
          "name": "amount",
          "type": "uint256"
        }
      ],
      "name": "ClaimReward",
      "type": "event"
    },
    {
      "anonymous": false,
      "inputs": [
        {
          "indexed": true,
          "internalType": "address",
          "name": "user",
          "type": "address"
        },
        {
          "indexed": false,
          "internalType": "uint256",
          "name": "amount",
          "type": "uint256"
        }
      ],
      "name": "Stake",
      "type": "event"
    },
    {
      "anonymous": false,
      "inputs": [
        {
          "indexed": true,
          "internalType": "address",
          "name": "user",
          "type": "address"
        },
        {
          "indexed": false,
          "internalType": "uint256",
          "name": "amount",
          "type": "uint256"
        }
      ],
      "name": "UnStake",
      "type": "event"
    },
    {
      "inputs": [],
      "name": "accumulatedRewardPerShare",
      "outputs": [
        {
          "internalType": "uint256",
          "name": "",
          "type": "uint256"
        }
      ],
      "stateMutability": "view",
      "type": "function",
      "constant": true
    },
    {
      "inputs": [],
      "name": "daiToken",
      "outputs": [
        {
          "internalType": "contract DaiToken",
          "name": "",
          "type": "address"
        }
      ],
      "stateMutability": "view",
      "type": "function",
      "constant": true
    },
    {
      "inputs": [],
      "name": "dappToken",
      "outputs": [
        {
          "internalType": "contract DappToken",
          "name": "",
          "type": "address"
        }
      ],
      "stateMutability": "view",
      "type": "function",
      "constant": true
    },
    {
      "inputs": [],
      "name": "lastRewardTimestamp",
      "outputs": [
        {
          "internalType": "uint256",
          "name": "",
          "type": "uint256"
        }
      ],
      "stateMutability": "view",
      "type": "function",
      "constant": true
    },
    {
      "inputs": [],
      "name": "name",
      "outputs": [
        {
          "internalType": "string",
          "name": "",
          "type": "string"
        }
      ],
      "stateMutability": "view",
      "type": "function",
      "constant": true
    },
    {
      "inputs": [],
      "name": "owner",
      "outputs": [
        {
          "internalType": "address",
          "name": "",
          "type": "address"
        }
      ],
      "stateMutability": "view",
      "type": "function",
      "constant": true
    },
    {
      "inputs": [],
      "name": "rewardPerSecond",
      "outputs": [
        {
          "internalType": "uint256",
          "name": "",
          "type": "uint256"
        }
      ],
      "stateMutability": "view",
      "type": "function",
      "constant": true
    },
    {
      "inputs": [],
      "name": "rewardPeriodEndTimestamp",
      "outputs": [
        {
          "internalType": "uint256",
          "name": "",
          "type": "uint256"
        }
      ],
      "stateMutability": "view",
      "type": "function",
      "constant": true
    },
    {
      "inputs": [],
      "name": "totalStaked",
      "outputs": [
        {
          "internalType": "uint256",
          "name": "",
          "type": "uint256"
        }
      ],
      "stateMutability": "view",
      "type": "function",
      "constant": true
    },
    {
      "inputs": [
        {
          "internalType": "uint256",
          "name": "_rewardsAmount",
          "type": "uint256"
        },
        {
          "internalType": "uint256",
          "name": "_lengthInDays",
          "type": "uint256"
        }
      ],
      "name": "addRewards",
      "outputs": [],
      "stateMutability": "nonpayable",
      "type": "function"
    },
    {
      "inputs": [],
      "name": "updateRewards",
      "outputs": [],
      "stateMutability": "nonpayable",
      "type": "function"
    },
    {
      "inputs": [
        {
          "internalType": "uint256",
          "name": "_amount",
          "type": "uint256"
        }
      ],
      "name": "stakeTokens",
      "outputs": [],
      "stateMutability": "nonpayable",
      "type": "function"
    },
    {
      "inputs": [],
      "name": "unstakeTokens",
      "outputs": [],
      "stateMutability": "nonpayable",
      "type": "function"
    },
    {
      "inputs": [],
      "name": "getUserInfo",
      "outputs": [
        {
          "internalType": "uint256",
          "name": "_rewardPerSecond",
          "type": "uint256"
        },
        {
          "internalType": "uint256",
          "name": "_secondsLeft",
          "type": "uint256"
        },
        {
          "internalType": "uint256",
          "name": "_deposited",
          "type": "uint256"
        }
      ],
      "stateMutability": "view",
      "type": "function",
      "constant": true
    }
  ],
  "bytecode": "0x60806040526040518060400160405280600f81526020017f4461707020546f6b656e204661726d0000000000000000000000000000000000815250600090805190602001906200005192919062000150565b503480156200005f57600080fd5b50604051620014b3380380620014b38339818101604052810190620000859190620002c3565b81600360006101000a81548173ffffffffffffffffffffffffffffffffffffffff021916908373ffffffffffffffffffffffffffffffffffffffff16021790555080600460006101000a81548173ffffffffffffffffffffffffffffffffffffffff021916908373ffffffffffffffffffffffffffffffffffffffff16021790555033600160006101000a81548173ffffffffffffffffffffffffffffffffffffffff021916908373ffffffffffffffffffffffffffffffffffffffff16021790555050506200036f565b8280546200015e9062000339565b90600052602060002090601f016020900481019282620001825760008555620001ce565b82601f106200019d57805160ff1916838001178555620001ce565b82800160010185558215620001ce579182015b82811115620001cd578251825591602001919060010190620001b0565b5b509050620001dd9190620001e1565b5090565b5b80821115620001fc576000816000905550600101620001e2565b5090565b600080fd5b600073ffffffffffffffffffffffffffffffffffffffff82169050919050565b6000620002328262000205565b9050919050565b6000620002468262000225565b9050919050565b620002588162000239565b81146200026457600080fd5b50565b60008151905062000278816200024d565b92915050565b60006200028b8262000225565b9050919050565b6200029d816200027e565b8114620002a957600080fd5b50565b600081519050620002bd8162000292565b92915050565b60008060408385031215620002dd57620002dc62000200565b5b6000620002ed8582860162000267565b92505060206200030085828601620002ac565b9150509250929050565b7f4e487b7100000000000000000000000000000000000000000000000000000000600052602260045260246000fd5b600060028204905060018216806200035257607f821691505b602082108114156200036957620003686200030a565b5b50919050565b611134806200037f6000396000f3fe608060405234801561001057600080fd5b5060043610610107576000357c0100000000000000000000000000000000000000000000000000000000900480638da5cb5b116100a9578063be22f54611610083578063be22f54614610210578063cfc2b3201461022e578063f8077fae1461024c578063fc41aa091461026a57610107565b80638da5cb5b146101ca5780638f10369a146101e8578063a5ce413b1461020657610107565b80635d8d1585116100e55780635d8d1585146101525780635eb186f8146101725780637547c7a314610190578063817b1cd2146101ac57610107565b806306fdde031461010c57806336d421951461012a5780633e158b0c14610148575b600080fd5b610114610286565b604051610121919061097a565b60405180910390f35b610132610314565b60405161013f91906109b5565b60405180910390f35b61015061031a565b005b61015a6103ff565b604051610169939291906109d0565b60405180910390f35b61017a610489565b6040516101879190610a86565b60405180910390f35b6101aa60048036038101906101a59190610ad2565b6104af565b005b6101b46104b2565b6040516101c191906109b5565b60405180910390f35b6101d26104b8565b6040516101df9190610b20565b60405180910390f35b6101f06104de565b6040516101fd91906109b5565b60405180910390f35b61020e6104e4565b005b6102186104e6565b6040516102259190610b5c565b60405180910390f35b61023661050c565b60405161024391906109b5565b60405180910390f35b610254610512565b60405161026191906109b5565b60405180910390f35b610284600480360381019061027f9190610b77565b610518565b005b6000805461029390610be6565b80601f01602080910402602001604051908101604052809291908181526020018280546102bf90610be6565b801561030c5780601f106102e15761010080835404028352916020019161030c565b820191906000526020600020905b8154815290600101906020018083116102ef57829003601f168201915b505050505081565b60095481565b6008544211610328576103fd565b6000600554148061033c5750600654600854115b1561034d57426008819055506103fd565b6000600654421115610363576006549050610367565b4290505b600061037e6008548361076990919063ffffffff16565b90506000610397600754836107c290919063ffffffff16565b90506103d96103c86005546103ba64e8d4a51000856107c290919063ffffffff16565b61082f90919063ffffffff16565b60095461088890919063ffffffff16565b600981905550426008819055506006544211156103f95760006007819055505b5050505b565b6000806000600654421161043f576104224260065461076990919063ffffffff16565b915061043c6298968060075461082f90919063ffffffff16565b92505b600260003373ffffffffffffffffffffffffffffffffffffffff1673ffffffffffffffffffffffffffffffffffffffff168152602001908152602001600020600001549050909192565b600360009054906101000a900473ffffffffffffffffffffffffffffffffffffffff1681565b50565b60055481565b600160009054906101000a900473ffffffffffffffffffffffffffffffffffffffff1681565b60075481565b565b600460009054906101000a900473ffffffffffffffffffffffffffffffffffffffff1681565b60065481565b60085481565b600160009054906101000a900473ffffffffffffffffffffffffffffffffffffffff1673ffffffffffffffffffffffffffffffffffffffff163373ffffffffffffffffffffffffffffffffffffffff161461057257600080fd5b60065442116105b6576040517f08c379a00000000000000000000000000000000000000000000000000000000081526004016105ad90610c8a565b60405180910390fd5b6105be61031a565b6105e66105d762015180836107c290919063ffffffff16565b4261088890919063ffffffff16565b6006819055506106296201518061061b8361060d62989680876107c290919063ffffffff16565b61082f90919063ffffffff16565b61082f90919063ffffffff16565b600781905550600360009054906101000a900473ffffffffffffffffffffffffffffffffffffffff1673ffffffffffffffffffffffffffffffffffffffff166323b872dd3330856040518463ffffffff167c01000000000000000000000000000000000000000000000000000000000281526004016106aa93929190610caa565b6020604051808303816000875af11580156106c9573d6000803e3d6000fd5b505050506040513d601f19601f820116820180604052508101906106ed9190610d19565b61072c576040517f08c379a000000000000000000000000000000000000000000000000000000000815260040161072390610d92565b60405180910390fd5b7f035a6817755d9d163087d4649b27315908b801d1f5e33071a44f1fc0f7a871b3828260405161075d929190610db2565b60405180910390a15050565b60008282846107789190610e0a565b91508111156107bc576040517f08c379a00000000000000000000000000000000000000000000000000000000081526004016107b390610e8a565b60405180910390fd5b92915050565b6000808214806107ea5750828283856107db9190610eaa565b9250826107e89190610f33565b145b610829576040517f08c379a000000000000000000000000000000000000000000000000000000000815260040161082090610fb0565b60405180910390fd5b92915050565b600080821415610874576040517f08c379a000000000000000000000000000000000000000000000000000000000815260040161086b9061101c565b60405180910390fd5b81836108809190610f33565b905092915050565b6000828284610897919061103c565b91508110156108db576040517f08c379a00000000000000000000000000000000000000000000000000000000081526004016108d2906110de565b60405180910390fd5b92915050565b600081519050919050565b600082825260208201905092915050565b60005b8381101561091b578082015181840152602081019050610900565b8381111561092a576000848401525b50505050565b6000601f19601f8301169050919050565b600061094c826108e1565b61095681856108ec565b93506109668185602086016108fd565b61096f81610930565b840191505092915050565b600060208201905081810360008301526109948184610941565b905092915050565b6000819050919050565b6109af8161099c565b82525050565b60006020820190506109ca60008301846109a6565b92915050565b60006060820190506109e560008301866109a6565b6109f260208301856109a6565b6109ff60408301846109a6565b949350505050565b600073ffffffffffffffffffffffffffffffffffffffff82169050919050565b6000819050919050565b6000610a4c610a47610a4284610a07565b610a27565b610a07565b9050919050565b6000610a5e82610a31565b9050919050565b6000610a7082610a53565b9050919050565b610a8081610a65565b82525050565b6000602082019050610a9b6000830184610a77565b92915050565b600080fd5b610aaf8161099c565b8114610aba57600080fd5b50565b600081359050610acc81610aa6565b92915050565b600060208284031215610ae857610ae7610aa1565b5b6000610af684828501610abd565b91505092915050565b6000610b0a82610a07565b9050919050565b610b1a81610aff565b82525050565b6000602082019050610b356000830184610b11565b92915050565b6000610b4682610a53565b9050919050565b610b5681610b3b565b82525050565b6000602082019050610b716000830184610b4d565b92915050565b60008060408385031215610b8e57610b8d610aa1565b5b6000610b9c85828601610abd565b9250506020610bad85828601610abd565b9150509250929050565b7f4e487b7100000000000000000000000000000000000000000000000000000000600052602260045260246000fd5b60006002820490506001821680610bfe57607f821691505b60208210811415610c1257610c11610bb7565b5b50919050565b7f5374616b65723a2063616e2774206164642072657761726473206265666f726560008201527f20706572696f642066696e697368656400000000000000000000000000000000602082015250565b6000610c746030836108ec565b9150610c7f82610c18565b604082019050919050565b60006020820190508181036000830152610ca381610c67565b9050919050565b6000606082019050610cbf6000830186610b11565b610ccc6020830185610b11565b610cd960408301846109a6565b949350505050565b60008115159050919050565b610cf681610ce1565b8114610d0157600080fd5b50565b600081519050610d1381610ced565b92915050565b600060208284031215610d2f57610d2e610aa1565b5b6000610d3d84828501610d04565b91505092915050565b7f5374616b65723a207472616e73666572206661696c6564000000000000000000600082015250565b6000610d7c6017836108ec565b9150610d8782610d46565b602082019050919050565b60006020820190508181036000830152610dab81610d6f565b9050919050565b6000604082019050610dc760008301856109a6565b610dd460208301846109a6565b9392505050565b7f4e487b7100000000000000000000000000000000000000000000000000000000600052601160045260246000fd5b6000610e158261099c565b9150610e208361099c565b925082821015610e3357610e32610ddb565b5b828203905092915050565b7f737562206f766572666c6f770000000000000000000000000000000000000000600082015250565b6000610e74600c836108ec565b9150610e7f82610e3e565b602082019050919050565b60006020820190508181036000830152610ea381610e67565b9050919050565b6000610eb58261099c565b9150610ec08361099c565b9250817fffffffffffffffffffffffffffffffffffffffffffffffffffffffffffffffff0483118215151615610ef957610ef8610ddb565b5b828202905092915050565b7f4e487b7100000000000000000000000000000000000000000000000000000000600052601260045260246000fd5b6000610f3e8261099c565b9150610f498361099c565b925082610f5957610f58610f04565b5b828204905092915050565b7f6d756c206f766572666c6f770000000000000000000000000000000000000000600082015250565b6000610f9a600c836108ec565b9150610fa582610f64565b602082019050919050565b60006020820190508181036000830152610fc981610f8d565b9050919050565b7f696e76616c696420646976000000000000000000000000000000000000000000600082015250565b6000611006600b836108ec565b915061101182610fd0565b602082019050919050565b6000602082019050818103600083015261103581610ff9565b9050919050565b60006110478261099c565b91506110528361099c565b9250827fffffffffffffffffffffffffffffffffffffffffffffffffffffffffffffffff0382111561108757611086610ddb565b5b828201905092915050565b7f616464206f766572666c6f770000000000000000000000000000000000000000600082015250565b60006110c8600c836108ec565b91506110d382611092565b602082019050919050565b600060208201905081810360008301526110f7816110bb565b905091905056fea2646970667358221220cd9334919006fad72eaa586782613de7e80c616c26a8fc85fb31b7093bee377964736f6c634300080a0033",
  "immutableReferences": {},
  "source": "// SPDX-License-Identifier: MIT\npragma solidity >=0.4.22 <0.9.0;\n\nimport \"./DaiToken.sol\";\nimport \"./DappToken.sol\";\nimport \"./SafeMath.sol\";\n\ncontract TokenFarm {\n    using SafeMath for uint256;\n\n    string public name = \"Dapp Token Farm\";\n    address public owner;\n\n    struct UserInfo {\n        uint256 deposited;\n        uint256 rewardsAlreadyConsidered;\n    }\n\n    // mapping list of all stakers\n    mapping(address => UserInfo) users;\n\n    // reward token\n    DappToken public dappToken;\n\n    // deposit token\n    DaiToken public daiToken;\n\n    // total staked\n    uint256 public totalStaked;\n\n    //\n    uint256 public rewardPeriodEndTimestamp;\n    uint256 public rewardPerSecond;\n\n    // last time update reward\n    uint256 public lastRewardTimestamp;\n    uint256 public accumulatedRewardPerShare;\n\n    modifier onlyOwner() {\n        require(msg.sender == owner);\n        _;\n    }\n\n    event AddRewards(uint256 amount, uint256 lengthInDays);\n    event ClaimReward(address indexed user, uint256 amount);\n    event Stake(address indexed user, uint256 amount);\n    event UnStake(address indexed user, uint256 amount);\n\n    constructor(DappToken _dappToken, DaiToken _daiToken) {\n        dappToken = _dappToken;\n        daiToken = _daiToken;\n        owner = msg.sender;\n    }\n\n    function addRewards(uint256 _rewardsAmount, uint256 _lengthInDays)\n        external\n        onlyOwner\n    {\n        require(block.timestamp > rewardPeriodEndTimestamp, \"Staker: can't add rewards before period finished\");\n        updateRewards();\n        rewardPeriodEndTimestamp = block.timestamp.add(\n            _lengthInDays.mul(24 * 60 * 60)\n        );\n        rewardPerSecond = _rewardsAmount.mul(1e7).div(_lengthInDays).div(24 * 60 * 60);\n        require(\n            dappToken.transferFrom(msg.sender, address(this), _rewardsAmount),\n            \"Staker: transfer failed\"\n        );\n        emit AddRewards(_rewardsAmount, _lengthInDays);\n    }\n\n    function updateRewards() public {\n        // no staking period active\n        if (block.timestamp <= lastRewardTimestamp) {\n            return;\n        }\n\n        // nobody staed - already updated rewards after staking ended.\n        if (\n            (totalStaked == 0) || lastRewardTimestamp > rewardPeriodEndTimestamp\n        ) {\n            lastRewardTimestamp = block.timestamp;\n            return;\n        }\n\n        uint256 endingTime;\n        if (block.timestamp > rewardPeriodEndTimestamp) {\n            endingTime = rewardPeriodEndTimestamp;\n        } else {\n            endingTime = block.timestamp;\n        }\n\n        uint256 secondsSinceLastRewardUpdate = endingTime.sub(\n            lastRewardTimestamp\n        );\n        uint256 totalReward = secondsSinceLastRewardUpdate.mul(rewardPerSecond);\n\n        accumulatedRewardPerShare = accumulatedRewardPerShare.add(\n            totalReward.mul(1e12).div(totalStaked)\n        );\n        lastRewardTimestamp = block.timestamp;\n\n        if (block.timestamp > rewardPeriodEndTimestamp) {\n            rewardPerSecond = 0;\n        }\n    }\n\n    // Stakes Tokens (Deposit): transfer the DAI token from the investor to this contract\n    function stakeTokens(uint256 _amount) public {\n        // // must more than 0\n        // require(_amount > 0, \"amount cannot be 0\");\n        // // sending DAi tokens\n        // daiToken.transferFrom(msg.sender, address(this), _amount);\n        // totalStaked += _amount;\n        // // updating staking balnce\n        // stakingBalance[msg.sender] = stakingBalance[msg.sender] + _amount;\n        // if (!hasStaked[msg.sender]) {\n        //     // stakers.push(msg.sender);\n        // }\n        // // updating staking status\n        // hasStaked[msg.sender] = true;\n        // isStaking[msg.sender] = true;\n    }\n\n    // Unstaking Tokens (Withdraw)\n    function unstakeTokens() public {\n        // // get staking balance for user\n        // uint256 balance = stakingBalance[msg.sender];\n        // // balance must more than 0\n        // require(balance > 0, \"staking balance cannot be 0\");\n        // // transfer staked tokens back to user\n        // daiToken.transfer(msg.sender, balance);\n        // totalStaked = totalStaked - balance;\n        // // reseting user staking balance\n        // stakingBalance[msg.sender] = 0;\n        // // updating staking status\n        // isStaking[msg.sender] = false;\n    }\n\n    // add Reward Tokens (Earning)\n    // function updateRewards() public onlyOwner {\n    //     // require(msg.sender == owner, \"caller must be the owner\");\n    //     for (uint256 i = 0; i < stakers.length; i++) {\n    //         address recipient = stakers[i];\n    //         uint256 balance = stakingBalance[recipient];\n\n    //         if (balance > 0) {\n    //             dappToken.transfer(recipient, balance);\n    //         }\n    //     }\n    // }\n\n    function getUserInfo() external view returns(uint256 _rewardPerSecond, uint256 _secondsLeft, uint256 _deposited) {\n        if(block.timestamp <= rewardPeriodEndTimestamp) {\n            _secondsLeft = rewardPeriodEndTimestamp.sub(block.timestamp);\n            _rewardPerSecond = rewardPerSecond.div(1e7);\n        }\n        _deposited = users[msg.sender].deposited;\n    }\n}\n",
  "sourcePath": "/home/ngocphuc/Documents/github.com/blockchain/eth-staking-dapp/contracts/TokenFarm.sol",
  "compiler": {
    "name": "solc",
    "version": "0.8.10+commit.fc410830.Emscripten.clang"
  },
  "schemaVersion": "3.4.3",
  "updatedAt": "2022-02-07T14:43:54.256Z",
  "networkType": "ethereum",
  "devdoc": {
    "kind": "dev",
    "methods": {},
    "version": 1
  },
  "userdoc": {
    "kind": "user",
    "methods": {},
    "version": 1
  }
}