{
  "contractName": "TokenFarm",
  "abi": [
    {
      "inputs": [
        {
          "internalType": "contract DappToken",
          "name": "_dappToken",
          "type": "address"
        },
        {
          "internalType": "contract DaiToken",
          "name": "_daiToken",
          "type": "address"
        }
      ],
      "stateMutability": "payable",
      "type": "constructor",
      "payable": true
    },
    {
      "inputs": [],
      "name": "daiToken",
      "outputs": [
        {
          "internalType": "contract DaiToken",
          "name": "",
          "type": "address"
        }
      ],
      "stateMutability": "view",
      "type": "function",
      "constant": true
    },
    {
      "inputs": [],
      "name": "dappToken",
      "outputs": [
        {
          "internalType": "contract DappToken",
          "name": "",
          "type": "address"
        }
      ],
      "stateMutability": "view",
      "type": "function",
      "constant": true
    },
    {
      "inputs": [],
      "name": "defaultAPY",
      "outputs": [
        {
          "internalType": "uint256",
          "name": "",
          "type": "uint256"
        }
      ],
      "stateMutability": "view",
      "type": "function",
      "constant": true
    },
    {
      "inputs": [
        {
          "internalType": "address",
          "name": "",
          "type": "address"
        }
      ],
      "name": "hasStaked",
      "outputs": [
        {
          "internalType": "bool",
          "name": "",
          "type": "bool"
        }
      ],
      "stateMutability": "view",
      "type": "function",
      "constant": true
    },
    {
      "inputs": [
        {
          "internalType": "address",
          "name": "",
          "type": "address"
        }
      ],
      "name": "isStaking",
      "outputs": [
        {
          "internalType": "bool",
          "name": "",
          "type": "bool"
        }
      ],
      "stateMutability": "view",
      "type": "function",
      "constant": true
    },
    {
      "inputs": [],
      "name": "name",
      "outputs": [
        {
          "internalType": "string",
          "name": "",
          "type": "string"
        }
      ],
      "stateMutability": "view",
      "type": "function",
      "constant": true
    },
    {
      "inputs": [],
      "name": "owner",
      "outputs": [
        {
          "internalType": "address",
          "name": "",
          "type": "address"
        }
      ],
      "stateMutability": "view",
      "type": "function",
      "constant": true
    },
    {
      "inputs": [
        {
          "internalType": "uint256",
          "name": "",
          "type": "uint256"
        }
      ],
      "name": "stakers",
      "outputs": [
        {
          "internalType": "address",
          "name": "",
          "type": "address"
        }
      ],
      "stateMutability": "view",
      "type": "function",
      "constant": true
    },
    {
      "inputs": [
        {
          "internalType": "address",
          "name": "",
          "type": "address"
        }
      ],
      "name": "stakingBalance",
      "outputs": [
        {
          "internalType": "uint256",
          "name": "",
          "type": "uint256"
        }
      ],
      "stateMutability": "view",
      "type": "function",
      "constant": true
    },
    {
      "inputs": [],
      "name": "totalStaked",
      "outputs": [
        {
          "internalType": "uint256",
          "name": "",
          "type": "uint256"
        }
      ],
      "stateMutability": "view",
      "type": "function",
      "constant": true
    },
    {
      "inputs": [
        {
          "internalType": "uint256",
          "name": "_amount",
          "type": "uint256"
        }
      ],
      "name": "stakeTokens",
      "outputs": [],
      "stateMutability": "nonpayable",
      "type": "function"
    },
    {
      "inputs": [],
      "name": "unstakeTokens",
      "outputs": [],
      "stateMutability": "nonpayable",
      "type": "function"
    },
    {
      "inputs": [],
      "name": "addRewards",
      "outputs": [],
      "stateMutability": "nonpayable",
      "type": "function"
    }
  ],
  "bytecode": "0x60806040526040518060400160405280600f81526020017f4461707020546f6b656e204661726d0000000000000000000000000000000000815250600090805190602001906200005192919062000147565b506064600455604051620015703803806200157083398181016040528101906200007c9190620002ba565b81600160006101000a81548173ffffffffffffffffffffffffffffffffffffffff021916908373ffffffffffffffffffffffffffffffffffffffff16021790555080600260006101000a81548173ffffffffffffffffffffffffffffffffffffffff021916908373ffffffffffffffffffffffffffffffffffffffff16021790555033600360006101000a81548173ffffffffffffffffffffffffffffffffffffffff021916908373ffffffffffffffffffffffffffffffffffffffff160217905550505062000366565b828054620001559062000330565b90600052602060002090601f016020900481019282620001795760008555620001c5565b82601f106200019457805160ff1916838001178555620001c5565b82800160010185558215620001c5579182015b82811115620001c4578251825591602001919060010190620001a7565b5b509050620001d49190620001d8565b5090565b5b80821115620001f3576000816000905550600101620001d9565b5090565b600080fd5b600073ffffffffffffffffffffffffffffffffffffffff82169050919050565b60006200022982620001fc565b9050919050565b60006200023d826200021c565b9050919050565b6200024f8162000230565b81146200025b57600080fd5b50565b6000815190506200026f8162000244565b92915050565b600062000282826200021c565b9050919050565b620002948162000275565b8114620002a057600080fd5b50565b600081519050620002b48162000289565b92915050565b60008060408385031215620002d457620002d3620001f7565b5b6000620002e4858286016200025e565b9250506020620002f785828601620002a3565b9150509250929050565b7f4e487b7100000000000000000000000000000000000000000000000000000000600052602260045260246000fd5b600060028204905060018216806200034957607f821691505b6020821081141562000360576200035f62000301565b5b50919050565b6111fa80620003766000396000f3fe608060405234801561001057600080fd5b50600436106100ec576000357c010000000000000000000000000000000000000000000000000000000090048063817b1cd2116100a9578063b4e892af11610083578063b4e892af146101f9578063be22f54614610217578063c93c8f3414610235578063fd5e6dd114610265576100ec565b8063817b1cd2146101b35780638da5cb5b146101d1578063a5ce413b146101ef576100ec565b806306fdde03146100f157806314d6aed01461010f57806345bc78ab146101195780635eb186f8146101495780636f49712b146101675780637547c7a314610197575b600080fd5b6100f9610295565b6040516101069190610be0565b60405180910390f35b610117610323565b005b610133600480360381019061012e9190610c65565b610529565b6040516101409190610cab565b60405180910390f35b610151610541565b60405161015e9190610d25565b60405180910390f35b610181600480360381019061017c9190610c65565b610567565b60405161018e9190610d5b565b60405180910390f35b6101b160048036038101906101ac9190610da2565b610587565b005b6101bb610898565b6040516101c89190610cab565b60405180910390f35b6101d961089e565b6040516101e69190610dde565b60405180910390f35b6101f76108c4565b005b610201610abc565b60405161020e9190610cab565b60405180910390f35b61021f610ac2565b60405161022c9190610e1a565b60405180910390f35b61024f600480360381019061024a9190610c65565b610ae8565b60405161025c9190610d5b565b60405180910390f35b61027f600480360381019061027a9190610da2565b610b08565b60405161028c9190610dde565b60405180910390f35b600080546102a290610e64565b80601f01602080910402602001604051908101604052809291908181526020018280546102ce90610e64565b801561031b5780601f106102f05761010080835404028352916020019161031b565b820191906000526020600020905b8154815290600101906020018083116102fe57829003601f168201915b505050505081565b600360009054906101000a900473ffffffffffffffffffffffffffffffffffffffff1673ffffffffffffffffffffffffffffffffffffffff163373ffffffffffffffffffffffffffffffffffffffff16146103b3576040517f08c379a00000000000000000000000000000000000000000000000000000000081526004016103aa90610ee2565b60405180910390fd5b60005b600680549050811015610526576000600682815481106103d9576103d8610f02565b5b9060005260206000200160009054906101000a900473ffffffffffffffffffffffffffffffffffffffff1690506000600760008373ffffffffffffffffffffffffffffffffffffffff1673ffffffffffffffffffffffffffffffffffffffff168152602001908152602001600020549050600081111561051157600160009054906101000a900473ffffffffffffffffffffffffffffffffffffffff1673ffffffffffffffffffffffffffffffffffffffff1663a9059cbb83836040518363ffffffff167c01000000000000000000000000000000000000000000000000000000000281526004016104cc929190610f31565b6020604051808303816000875af11580156104eb573d6000803e3d6000fd5b505050506040513d601f19601f8201168201806040525081019061050f9190610f86565b505b5050808061051e90610fe2565b9150506103b6565b50565b60076020528060005260406000206000915090505481565b600160009054906101000a900473ffffffffffffffffffffffffffffffffffffffff1681565b60096020528060005260406000206000915054906101000a900460ff1681565b600081116105ca576040517f08c379a00000000000000000000000000000000000000000000000000000000081526004016105c190611077565b60405180910390fd5b600260009054906101000a900473ffffffffffffffffffffffffffffffffffffffff1673ffffffffffffffffffffffffffffffffffffffff166323b872dd3330846040518463ffffffff167c010000000000000000000000000000000000000000000000000000000002815260040161064593929190611097565b6020604051808303816000875af1158015610664573d6000803e3d6000fd5b505050506040513d601f19601f820116820180604052508101906106889190610f86565b50806005600082825461069b91906110ce565b9250508190555080600760003373ffffffffffffffffffffffffffffffffffffffff1673ffffffffffffffffffffffffffffffffffffffff168152602001908152602001600020546106ed91906110ce565b600760003373ffffffffffffffffffffffffffffffffffffffff1673ffffffffffffffffffffffffffffffffffffffff16815260200190815260200160002081905550600860003373ffffffffffffffffffffffffffffffffffffffff1673ffffffffffffffffffffffffffffffffffffffff16815260200190815260200160002060009054906101000a900460ff166107e5576006339080600181540180825580915050600190039060005260206000200160009091909190916101000a81548173ffffffffffffffffffffffffffffffffffffffff021916908373ffffffffffffffffffffffffffffffffffffffff1602179055505b6001600860003373ffffffffffffffffffffffffffffffffffffffff1673ffffffffffffffffffffffffffffffffffffffff16815260200190815260200160002060006101000a81548160ff0219169083151502179055506001600960003373ffffffffffffffffffffffffffffffffffffffff1673ffffffffffffffffffffffffffffffffffffffff16815260200190815260200160002060006101000a81548160ff02191690831515021790555050565b60055481565b600360009054906101000a900473ffffffffffffffffffffffffffffffffffffffff1681565b6000600760003373ffffffffffffffffffffffffffffffffffffffff1673ffffffffffffffffffffffffffffffffffffffff1681526020019081526020016000205490506000811161094b576040517f08c379a000000000000000000000000000000000000000000000000000000000815260040161094290611170565b60405180910390fd5b600260009054906101000a900473ffffffffffffffffffffffffffffffffffffffff1673ffffffffffffffffffffffffffffffffffffffff1663a9059cbb33836040518363ffffffff167c01000000000000000000000000000000000000000000000000000000000281526004016109c4929190610f31565b6020604051808303816000875af11580156109e3573d6000803e3d6000fd5b505050506040513d601f19601f82011682018060405250810190610a079190610f86565b5080600554610a169190611190565b6005819055506000600760003373ffffffffffffffffffffffffffffffffffffffff1673ffffffffffffffffffffffffffffffffffffffff168152602001908152602001600020819055506000600960003373ffffffffffffffffffffffffffffffffffffffff1673ffffffffffffffffffffffffffffffffffffffff16815260200190815260200160002060006101000a81548160ff02191690831515021790555050565b60045481565b600260009054906101000a900473ffffffffffffffffffffffffffffffffffffffff1681565b60086020528060005260406000206000915054906101000a900460ff1681565b60068181548110610b1857600080fd5b906000526020600020016000915054906101000a900473ffffffffffffffffffffffffffffffffffffffff1681565b600081519050919050565b600082825260208201905092915050565b60005b83811015610b81578082015181840152602081019050610b66565b83811115610b90576000848401525b50505050565b6000601f19601f8301169050919050565b6000610bb282610b47565b610bbc8185610b52565b9350610bcc818560208601610b63565b610bd581610b96565b840191505092915050565b60006020820190508181036000830152610bfa8184610ba7565b905092915050565b600080fd5b600073ffffffffffffffffffffffffffffffffffffffff82169050919050565b6000610c3282610c07565b9050919050565b610c4281610c27565b8114610c4d57600080fd5b50565b600081359050610c5f81610c39565b92915050565b600060208284031215610c7b57610c7a610c02565b5b6000610c8984828501610c50565b91505092915050565b6000819050919050565b610ca581610c92565b82525050565b6000602082019050610cc06000830184610c9c565b92915050565b6000819050919050565b6000610ceb610ce6610ce184610c07565b610cc6565b610c07565b9050919050565b6000610cfd82610cd0565b9050919050565b6000610d0f82610cf2565b9050919050565b610d1f81610d04565b82525050565b6000602082019050610d3a6000830184610d16565b92915050565b60008115159050919050565b610d5581610d40565b82525050565b6000602082019050610d706000830184610d4c565b92915050565b610d7f81610c92565b8114610d8a57600080fd5b50565b600081359050610d9c81610d76565b92915050565b600060208284031215610db857610db7610c02565b5b6000610dc684828501610d8d565b91505092915050565b610dd881610c27565b82525050565b6000602082019050610df36000830184610dcf565b92915050565b6000610e0482610cf2565b9050919050565b610e1481610df9565b82525050565b6000602082019050610e2f6000830184610e0b565b92915050565b7f4e487b7100000000000000000000000000000000000000000000000000000000600052602260045260246000fd5b60006002820490506001821680610e7c57607f821691505b60208210811415610e9057610e8f610e35565b5b50919050565b7f63616c6c6572206d75737420626520746865206f776e65720000000000000000600082015250565b6000610ecc601883610b52565b9150610ed782610e96565b602082019050919050565b60006020820190508181036000830152610efb81610ebf565b9050919050565b7f4e487b7100000000000000000000000000000000000000000000000000000000600052603260045260246000fd5b6000604082019050610f466000830185610dcf565b610f536020830184610c9c565b9392505050565b610f6381610d40565b8114610f6e57600080fd5b50565b600081519050610f8081610f5a565b92915050565b600060208284031215610f9c57610f9b610c02565b5b6000610faa84828501610f71565b91505092915050565b7f4e487b7100000000000000000000000000000000000000000000000000000000600052601160045260246000fd5b6000610fed82610c92565b91507fffffffffffffffffffffffffffffffffffffffffffffffffffffffffffffffff8214156110205761101f610fb3565b5b600182019050919050565b7f616d6f756e742063616e6e6f7420626520300000000000000000000000000000600082015250565b6000611061601283610b52565b915061106c8261102b565b602082019050919050565b6000602082019050818103600083015261109081611054565b9050919050565b60006060820190506110ac6000830186610dcf565b6110b96020830185610dcf565b6110c66040830184610c9c565b949350505050565b60006110d982610c92565b91506110e483610c92565b9250827fffffffffffffffffffffffffffffffffffffffffffffffffffffffffffffffff0382111561111957611118610fb3565b5b828201905092915050565b7f7374616b696e672062616c616e63652063616e6e6f7420626520300000000000600082015250565b600061115a601b83610b52565b915061116582611124565b602082019050919050565b600060208201905081810360008301526111898161114d565b9050919050565b600061119b82610c92565b91506111a683610c92565b9250828210156111b9576111b8610fb3565b5b82820390509291505056fea2646970667358221220d82f470c904afe3b697f0088485887674d6b20d2bf2f7f8f44bce2ba3fb5584964736f6c634300080a0033",
  "immutableReferences": {},
  "source": "// SPDX-License-Identifier: MIT\npragma solidity >=0.4.22 <0.9.0;\n\nimport \"./DaiToken.sol\";\nimport \"./DappToken.sol\";\n\ncontract TokenFarm {\n    string public name = \"Dapp Token Farm\";\n    DappToken public dappToken;\n    DaiToken public daiToken;\n    address public owner;\n\n    // APY (0.1% daily)\n    uint256 public defaultAPY = 100;\n\n    // total staked\n    uint256 public totalStaked;\n\n    // array of all stakers\n    address[] public stakers;\n\n    // users staking balance\n    mapping(address => uint256) public stakingBalance;\n\n    // mapping list of users who ever staked\n    mapping(address => bool) public hasStaked;\n\n    // mapping list of users who are staking at the moment\n    mapping(address => bool) public isStaking;\n\n    constructor(DappToken _dappToken, DaiToken _daiToken) payable {\n        dappToken = _dappToken;\n        daiToken = _daiToken;\n        owner = msg.sender;\n    }\n\n    // Stakes Tokens (Deposit): transfer the DAI token from the investor to this contract\n    function stakeTokens(uint256 _amount) public {\n        // must more than 0\n        require(_amount > 0, \"amount cannot be 0\");\n\n        // sending DAi tokens\n        daiToken.transferFrom(msg.sender, address(this), _amount);\n        totalStaked += _amount;\n\n        // updating staking balnce\n        stakingBalance[msg.sender] = stakingBalance[msg.sender] + _amount;\n\n        if (!hasStaked[msg.sender]) {\n            stakers.push(msg.sender);\n        }\n\n        // updating staking status\n        hasStaked[msg.sender] = true;\n        isStaking[msg.sender] = true;\n    }\n\n    // Unstaking Tokens (Withdraw)\n    function unstakeTokens() public {\n        // get staking balance for user\n        uint256 balance = stakingBalance[msg.sender];\n\n        // balance must more than 0\n        require(balance > 0, \"staking balance cannot be 0\");\n\n        // transfer staked tokens back to user\n        daiToken.transfer(msg.sender, balance);\n        totalStaked = totalStaked - balance;\n\n        // reseting user staking balance\n        stakingBalance[msg.sender] = 0;\n\n        // updating staking status\n        isStaking[msg.sender] = false;\n    }\n\n    // add Reward Tokens (Earning)\n    function addRewards() public {\n        require(msg.sender == owner, \"caller must be the owner\");\n        for (uint256 i = 0; i < stakers.length; i++) {\n            address recipient = stakers[i];\n            uint256 balance = stakingBalance[recipient];\n\n            if (balance > 0) {\n                dappToken.transfer(recipient, balance);\n            }\n        }\n    }\n}\n",
  "sourcePath": "/home/ngocphuc/Documents/github.com/blockchain/eth-staking-dapp/contracts/TokenFarm.sol",
  "compiler": {
    "name": "solc",
    "version": "0.8.10+commit.fc410830.Emscripten.clang"
  },
  "schemaVersion": "3.4.3",
  "updatedAt": "2022-01-31T16:06:24.821Z",
  "networkType": "ethereum",
  "devdoc": {
    "kind": "dev",
    "methods": {},
    "version": 1
  },
  "userdoc": {
    "kind": "user",
    "methods": {},
    "version": 1
  }
}