{
  "contractName": "TokenFarm",
  "abi": [
    {
      "inputs": [
        {
          "internalType": "contract DappToken",
          "name": "_dappToken",
          "type": "address"
        },
        {
          "internalType": "contract DaiToken",
          "name": "_daiToken",
          "type": "address"
        }
      ],
      "stateMutability": "nonpayable",
      "type": "constructor"
    },
    {
      "anonymous": false,
      "inputs": [
        {
          "indexed": false,
          "internalType": "uint256",
          "name": "amount",
          "type": "uint256"
        },
        {
          "indexed": false,
          "internalType": "uint256",
          "name": "lengthInDays",
          "type": "uint256"
        }
      ],
      "name": "AddRewards",
      "type": "event"
    },
    {
      "anonymous": false,
      "inputs": [
        {
          "indexed": true,
          "internalType": "address",
          "name": "user",
          "type": "address"
        },
        {
          "indexed": false,
          "internalType": "uint256",
          "name": "amount",
          "type": "uint256"
        }
      ],
      "name": "ClaimReward",
      "type": "event"
    },
    {
      "anonymous": false,
      "inputs": [
        {
          "indexed": true,
          "internalType": "address",
          "name": "user",
          "type": "address"
        },
        {
          "indexed": false,
          "internalType": "uint256",
          "name": "amount",
          "type": "uint256"
        }
      ],
      "name": "Stake",
      "type": "event"
    },
    {
      "anonymous": false,
      "inputs": [
        {
          "indexed": true,
          "internalType": "address",
          "name": "user",
          "type": "address"
        },
        {
          "indexed": false,
          "internalType": "uint256",
          "name": "amount",
          "type": "uint256"
        }
      ],
      "name": "UnStake",
      "type": "event"
    },
    {
      "inputs": [],
      "name": "accumulatedRewardPerShare",
      "outputs": [
        {
          "internalType": "uint256",
          "name": "",
          "type": "uint256"
        }
      ],
      "stateMutability": "view",
      "type": "function",
      "constant": true
    },
    {
      "inputs": [],
      "name": "daiToken",
      "outputs": [
        {
          "internalType": "contract DaiToken",
          "name": "",
          "type": "address"
        }
      ],
      "stateMutability": "view",
      "type": "function",
      "constant": true
    },
    {
      "inputs": [],
      "name": "dappToken",
      "outputs": [
        {
          "internalType": "contract DappToken",
          "name": "",
          "type": "address"
        }
      ],
      "stateMutability": "view",
      "type": "function",
      "constant": true
    },
    {
      "inputs": [],
      "name": "lastRewardTimestamp",
      "outputs": [
        {
          "internalType": "uint256",
          "name": "",
          "type": "uint256"
        }
      ],
      "stateMutability": "view",
      "type": "function",
      "constant": true
    },
    {
      "inputs": [],
      "name": "name",
      "outputs": [
        {
          "internalType": "string",
          "name": "",
          "type": "string"
        }
      ],
      "stateMutability": "view",
      "type": "function",
      "constant": true
    },
    {
      "inputs": [],
      "name": "owner",
      "outputs": [
        {
          "internalType": "address",
          "name": "",
          "type": "address"
        }
      ],
      "stateMutability": "view",
      "type": "function",
      "constant": true
    },
    {
      "inputs": [],
      "name": "rewardPerSecond",
      "outputs": [
        {
          "internalType": "uint256",
          "name": "",
          "type": "uint256"
        }
      ],
      "stateMutability": "view",
      "type": "function",
      "constant": true
    },
    {
      "inputs": [],
      "name": "rewardPeriodEndTimestamp",
      "outputs": [
        {
          "internalType": "uint256",
          "name": "",
          "type": "uint256"
        }
      ],
      "stateMutability": "view",
      "type": "function",
      "constant": true
    },
    {
      "inputs": [],
      "name": "totalStaked",
      "outputs": [
        {
          "internalType": "uint256",
          "name": "",
          "type": "uint256"
        }
      ],
      "stateMutability": "view",
      "type": "function",
      "constant": true
    },
    {
      "inputs": [
        {
          "internalType": "uint256",
          "name": "_rewardsAmount",
          "type": "uint256"
        },
        {
          "internalType": "uint256",
          "name": "_lengthInDays",
          "type": "uint256"
        }
      ],
      "name": "addRewards",
      "outputs": [],
      "stateMutability": "nonpayable",
      "type": "function"
    },
    {
      "inputs": [],
      "name": "updateRewards",
      "outputs": [],
      "stateMutability": "nonpayable",
      "type": "function"
    },
    {
      "inputs": [
        {
          "internalType": "uint256",
          "name": "_amount",
          "type": "uint256"
        }
      ],
      "name": "stakeTokens",
      "outputs": [],
      "stateMutability": "nonpayable",
      "type": "function"
    },
    {
      "inputs": [],
      "name": "unstakeTokens",
      "outputs": [],
      "stateMutability": "nonpayable",
      "type": "function"
    },
    {
      "inputs": [],
      "name": "getUserInfo",
      "outputs": [
        {
          "internalType": "uint256",
          "name": "_deposited",
          "type": "uint256"
        }
      ],
      "stateMutability": "view",
      "type": "function",
      "constant": true
    }
  ],
  "bytecode": "0x60806040526040518060400160405280600f81526020017f4461707020546f6b656e204661726d0000000000000000000000000000000000815250600090805190602001906200005192919062000150565b503480156200005f57600080fd5b506040516200143a3803806200143a8339818101604052810190620000859190620002c3565b81600360006101000a81548173ffffffffffffffffffffffffffffffffffffffff021916908373ffffffffffffffffffffffffffffffffffffffff16021790555080600460006101000a81548173ffffffffffffffffffffffffffffffffffffffff021916908373ffffffffffffffffffffffffffffffffffffffff16021790555033600160006101000a81548173ffffffffffffffffffffffffffffffffffffffff021916908373ffffffffffffffffffffffffffffffffffffffff16021790555050506200036f565b8280546200015e9062000339565b90600052602060002090601f016020900481019282620001825760008555620001ce565b82601f106200019d57805160ff1916838001178555620001ce565b82800160010185558215620001ce579182015b82811115620001cd578251825591602001919060010190620001b0565b5b509050620001dd9190620001e1565b5090565b5b80821115620001fc576000816000905550600101620001e2565b5090565b600080fd5b600073ffffffffffffffffffffffffffffffffffffffff82169050919050565b6000620002328262000205565b9050919050565b6000620002468262000225565b9050919050565b620002588162000239565b81146200026457600080fd5b50565b60008151905062000278816200024d565b92915050565b60006200028b8262000225565b9050919050565b6200029d816200027e565b8114620002a957600080fd5b50565b600081519050620002bd8162000292565b92915050565b60008060408385031215620002dd57620002dc62000200565b5b6000620002ed8582860162000267565b92505060206200030085828601620002ac565b9150509250929050565b7f4e487b7100000000000000000000000000000000000000000000000000000000600052602260045260246000fd5b600060028204905060018216806200035257607f821691505b602082108114156200036957620003686200030a565b5b50919050565b6110bb806200037f6000396000f3fe608060405234801561001057600080fd5b5060043610610107576000357c0100000000000000000000000000000000000000000000000000000000900480638da5cb5b116100a9578063be22f54611610083578063be22f5461461020e578063cfc2b3201461022c578063f8077fae1461024a578063fc41aa091461026857610107565b80638da5cb5b146101c85780638f10369a146101e6578063a5ce413b1461020457610107565b80635d8d1585116100e55780635d8d1585146101525780635eb186f8146101705780637547c7a31461018e578063817b1cd2146101aa57610107565b806306fdde031461010c57806336d421951461012a5780633e158b0c14610148575b600080fd5b610114610284565b6040516101219190610938565b60405180910390f35b610132610312565b60405161013f9190610973565b60405180910390f35b610150610318565b005b61015a6103fd565b6040516101679190610973565b60405180910390f35b610178610447565b6040516101859190610a0d565b60405180910390f35b6101a860048036038101906101a39190610a59565b61046d565b005b6101b2610470565b6040516101bf9190610973565b60405180910390f35b6101d0610476565b6040516101dd9190610aa7565b60405180910390f35b6101ee61049c565b6040516101fb9190610973565b60405180910390f35b61020c6104a2565b005b6102166104a4565b6040516102239190610ae3565b60405180910390f35b6102346104ca565b6040516102419190610973565b60405180910390f35b6102526104d0565b60405161025f9190610973565b60405180910390f35b610282600480360381019061027d9190610afe565b6104d6565b005b6000805461029190610b6d565b80601f01602080910402602001604051908101604052809291908181526020018280546102bd90610b6d565b801561030a5780601f106102df5761010080835404028352916020019161030a565b820191906000526020600020905b8154815290600101906020018083116102ed57829003601f168201915b505050505081565b60095481565b6008544211610326576103fb565b6000600554148061033a5750600654600854115b1561034b57426008819055506103fb565b6000600654421115610361576006549050610365565b4290505b600061037c6008548361072790919063ffffffff16565b905060006103956007548361078090919063ffffffff16565b90506103d76103c66005546103b864e8d4a510008561078090919063ffffffff16565b6107ed90919063ffffffff16565b60095461084690919063ffffffff16565b600981905550426008819055506006544211156103f75760006007819055505b5050505b565b6000600260003373ffffffffffffffffffffffffffffffffffffffff1673ffffffffffffffffffffffffffffffffffffffff16815260200190815260200160002060000154905090565b600360009054906101000a900473ffffffffffffffffffffffffffffffffffffffff1681565b50565b60055481565b600160009054906101000a900473ffffffffffffffffffffffffffffffffffffffff1681565b60075481565b565b600460009054906101000a900473ffffffffffffffffffffffffffffffffffffffff1681565b60065481565b60085481565b600160009054906101000a900473ffffffffffffffffffffffffffffffffffffffff1673ffffffffffffffffffffffffffffffffffffffff163373ffffffffffffffffffffffffffffffffffffffff161461053057600080fd5b6006544211610574576040517f08c379a000000000000000000000000000000000000000000000000000000000815260040161056b90610c11565b60405180910390fd5b61057c610318565b6105a4610595620151808361078090919063ffffffff16565b4261084690919063ffffffff16565b6006819055506105e7620151806105d9836105cb629896808761078090919063ffffffff16565b6107ed90919063ffffffff16565b6107ed90919063ffffffff16565b600781905550600360009054906101000a900473ffffffffffffffffffffffffffffffffffffffff1673ffffffffffffffffffffffffffffffffffffffff166323b872dd3330856040518463ffffffff167c010000000000000000000000000000000000000000000000000000000002815260040161066893929190610c31565b6020604051808303816000875af1158015610687573d6000803e3d6000fd5b505050506040513d601f19601f820116820180604052508101906106ab9190610ca0565b6106ea576040517f08c379a00000000000000000000000000000000000000000000000000000000081526004016106e190610d19565b60405180910390fd5b7f035a6817755d9d163087d4649b27315908b801d1f5e33071a44f1fc0f7a871b3828260405161071b929190610d39565b60405180910390a15050565b60008282846107369190610d91565b915081111561077a576040517f08c379a000000000000000000000000000000000000000000000000000000000815260040161077190610e11565b60405180910390fd5b92915050565b6000808214806107a85750828283856107999190610e31565b9250826107a69190610eba565b145b6107e7576040517f08c379a00000000000000000000000000000000000000000000000000000000081526004016107de90610f37565b60405180910390fd5b92915050565b600080821415610832576040517f08c379a000000000000000000000000000000000000000000000000000000000815260040161082990610fa3565b60405180910390fd5b818361083e9190610eba565b905092915050565b60008282846108559190610fc3565b9150811015610899576040517f08c379a000000000000000000000000000000000000000000000000000000000815260040161089090611065565b60405180910390fd5b92915050565b600081519050919050565b600082825260208201905092915050565b60005b838110156108d95780820151818401526020810190506108be565b838111156108e8576000848401525b50505050565b6000601f19601f8301169050919050565b600061090a8261089f565b61091481856108aa565b93506109248185602086016108bb565b61092d816108ee565b840191505092915050565b6000602082019050818103600083015261095281846108ff565b905092915050565b6000819050919050565b61096d8161095a565b82525050565b60006020820190506109886000830184610964565b92915050565b600073ffffffffffffffffffffffffffffffffffffffff82169050919050565b6000819050919050565b60006109d36109ce6109c98461098e565b6109ae565b61098e565b9050919050565b60006109e5826109b8565b9050919050565b60006109f7826109da565b9050919050565b610a07816109ec565b82525050565b6000602082019050610a2260008301846109fe565b92915050565b600080fd5b610a368161095a565b8114610a4157600080fd5b50565b600081359050610a5381610a2d565b92915050565b600060208284031215610a6f57610a6e610a28565b5b6000610a7d84828501610a44565b91505092915050565b6000610a918261098e565b9050919050565b610aa181610a86565b82525050565b6000602082019050610abc6000830184610a98565b92915050565b6000610acd826109da565b9050919050565b610add81610ac2565b82525050565b6000602082019050610af86000830184610ad4565b92915050565b60008060408385031215610b1557610b14610a28565b5b6000610b2385828601610a44565b9250506020610b3485828601610a44565b9150509250929050565b7f4e487b7100000000000000000000000000000000000000000000000000000000600052602260045260246000fd5b60006002820490506001821680610b8557607f821691505b60208210811415610b9957610b98610b3e565b5b50919050565b7f5374616b65723a2063616e2774206164642072657761726473206265666f726560008201527f20706572696f642066696e697368656400000000000000000000000000000000602082015250565b6000610bfb6030836108aa565b9150610c0682610b9f565b604082019050919050565b60006020820190508181036000830152610c2a81610bee565b9050919050565b6000606082019050610c466000830186610a98565b610c536020830185610a98565b610c606040830184610964565b949350505050565b60008115159050919050565b610c7d81610c68565b8114610c8857600080fd5b50565b600081519050610c9a81610c74565b92915050565b600060208284031215610cb657610cb5610a28565b5b6000610cc484828501610c8b565b91505092915050565b7f5374616b65723a207472616e73666572206661696c6564000000000000000000600082015250565b6000610d036017836108aa565b9150610d0e82610ccd565b602082019050919050565b60006020820190508181036000830152610d3281610cf6565b9050919050565b6000604082019050610d4e6000830185610964565b610d5b6020830184610964565b9392505050565b7f4e487b7100000000000000000000000000000000000000000000000000000000600052601160045260246000fd5b6000610d9c8261095a565b9150610da78361095a565b925082821015610dba57610db9610d62565b5b828203905092915050565b7f737562206f766572666c6f770000000000000000000000000000000000000000600082015250565b6000610dfb600c836108aa565b9150610e0682610dc5565b602082019050919050565b60006020820190508181036000830152610e2a81610dee565b9050919050565b6000610e3c8261095a565b9150610e478361095a565b9250817fffffffffffffffffffffffffffffffffffffffffffffffffffffffffffffffff0483118215151615610e8057610e7f610d62565b5b828202905092915050565b7f4e487b7100000000000000000000000000000000000000000000000000000000600052601260045260246000fd5b6000610ec58261095a565b9150610ed08361095a565b925082610ee057610edf610e8b565b5b828204905092915050565b7f6d756c206f766572666c6f770000000000000000000000000000000000000000600082015250565b6000610f21600c836108aa565b9150610f2c82610eeb565b602082019050919050565b60006020820190508181036000830152610f5081610f14565b9050919050565b7f696e76616c696420646976000000000000000000000000000000000000000000600082015250565b6000610f8d600b836108aa565b9150610f9882610f57565b602082019050919050565b60006020820190508181036000830152610fbc81610f80565b9050919050565b6000610fce8261095a565b9150610fd98361095a565b9250827fffffffffffffffffffffffffffffffffffffffffffffffffffffffffffffffff0382111561100e5761100d610d62565b5b828201905092915050565b7f616464206f766572666c6f770000000000000000000000000000000000000000600082015250565b600061104f600c836108aa565b915061105a82611019565b602082019050919050565b6000602082019050818103600083015261107e81611042565b905091905056fea2646970667358221220232d121e1283cfa50506d5b94ed5bce72e64d736e9e64d23b62596317e8bbdf564736f6c634300080a0033",
  "immutableReferences": {},
  "source": "// SPDX-License-Identifier: MIT\npragma solidity >=0.4.22 <0.9.0;\n\nimport \"./DaiToken.sol\";\nimport \"./DappToken.sol\";\nimport \"./SafeMath.sol\";\n\ncontract TokenFarm {\n    using SafeMath for uint256;\n\n    string public name = \"Dapp Token Farm\";\n    address public owner;\n\n    struct UserInfo {\n        uint256 deposited;\n        uint256 rewardsAlreadyConsidered;\n    }\n\n    // mapping list of all stakers\n    mapping(address => UserInfo) users;\n\n    // reward token\n    DappToken public dappToken;\n\n    // deposit token\n    DaiToken public daiToken;\n\n    // total staked\n    uint256 public totalStaked;\n\n    //\n    uint256 public rewardPeriodEndTimestamp;\n    uint256 public rewardPerSecond;\n\n    // last time update reward\n    uint256 public lastRewardTimestamp;\n    uint256 public accumulatedRewardPerShare;\n\n    modifier onlyOwner() {\n        require(msg.sender == owner);\n        _;\n    }\n\n    event AddRewards(uint256 amount, uint256 lengthInDays);\n    event ClaimReward(address indexed user, uint256 amount);\n    event Stake(address indexed user, uint256 amount);\n    event UnStake(address indexed user, uint256 amount);\n\n    constructor(DappToken _dappToken, DaiToken _daiToken) {\n        dappToken = _dappToken;\n        daiToken = _daiToken;\n        owner = msg.sender;\n    }\n\n    function addRewards(uint256 _rewardsAmount, uint256 _lengthInDays)\n        external\n        onlyOwner\n    {\n        require(block.timestamp > rewardPeriodEndTimestamp, \"Staker: can't add rewards before period finished\");\n        updateRewards();\n        rewardPeriodEndTimestamp = block.timestamp.add(\n            _lengthInDays.mul(24 * 60 * 60)\n        );\n        rewardPerSecond = _rewardsAmount.mul(1e7).div(_lengthInDays).div(24 * 60 * 60);\n        require(\n            dappToken.transferFrom(msg.sender, address(this), _rewardsAmount),\n            \"Staker: transfer failed\"\n        );\n        emit AddRewards(_rewardsAmount, _lengthInDays);\n    }\n\n    function updateRewards() public {\n        // no staking period active\n        if (block.timestamp <= lastRewardTimestamp) {\n            return;\n        }\n\n        // nobody staed - already updated rewards after staking ended.\n        if (\n            (totalStaked == 0) || lastRewardTimestamp > rewardPeriodEndTimestamp\n        ) {\n            lastRewardTimestamp = block.timestamp;\n            return;\n        }\n\n        uint256 endingTime;\n        if (block.timestamp > rewardPeriodEndTimestamp) {\n            endingTime = rewardPeriodEndTimestamp;\n        } else {\n            endingTime = block.timestamp;\n        }\n\n        uint256 secondsSinceLastRewardUpdate = endingTime.sub(\n            lastRewardTimestamp\n        );\n        uint256 totalReward = secondsSinceLastRewardUpdate.mul(rewardPerSecond);\n\n        accumulatedRewardPerShare = accumulatedRewardPerShare.add(\n            totalReward.mul(1e12).div(totalStaked)\n        );\n        lastRewardTimestamp = block.timestamp;\n\n        if (block.timestamp > rewardPeriodEndTimestamp) {\n            rewardPerSecond = 0;\n        }\n    }\n\n    // Stakes Tokens (Deposit): transfer the DAI token from the investor to this contract\n    function stakeTokens(uint256 _amount) public {\n        // // must more than 0\n        // require(_amount > 0, \"amount cannot be 0\");\n        // // sending DAi tokens\n        // daiToken.transferFrom(msg.sender, address(this), _amount);\n        // totalStaked += _amount;\n        // // updating staking balnce\n        // stakingBalance[msg.sender] = stakingBalance[msg.sender] + _amount;\n        // if (!hasStaked[msg.sender]) {\n        //     // stakers.push(msg.sender);\n        // }\n        // // updating staking status\n        // hasStaked[msg.sender] = true;\n        // isStaking[msg.sender] = true;\n    }\n\n    // Unstaking Tokens (Withdraw)\n    function unstakeTokens() public {\n        // // get staking balance for user\n        // uint256 balance = stakingBalance[msg.sender];\n        // // balance must more than 0\n        // require(balance > 0, \"staking balance cannot be 0\");\n        // // transfer staked tokens back to user\n        // daiToken.transfer(msg.sender, balance);\n        // totalStaked = totalStaked - balance;\n        // // reseting user staking balance\n        // stakingBalance[msg.sender] = 0;\n        // // updating staking status\n        // isStaking[msg.sender] = false;\n    }\n\n    // add Reward Tokens (Earning)\n    // function updateRewards() public onlyOwner {\n    //     // require(msg.sender == owner, \"caller must be the owner\");\n    //     for (uint256 i = 0; i < stakers.length; i++) {\n    //         address recipient = stakers[i];\n    //         uint256 balance = stakingBalance[recipient];\n\n    //         if (balance > 0) {\n    //             dappToken.transfer(recipient, balance);\n    //         }\n    //     }\n    // }\n\n    function getUserInfo() external view returns(uint256 _deposited) {\n        _deposited = users[msg.sender].deposited;\n    }\n}\n",
  "sourcePath": "/home/ngocphuc/Documents/github.com/blockchain/eth-staking-dapp/contracts/TokenFarm.sol",
  "compiler": {
    "name": "solc",
    "version": "0.8.10+commit.fc410830.Emscripten.clang"
  },
  "schemaVersion": "3.4.3",
  "updatedAt": "2022-02-07T04:47:25.259Z",
  "networkType": "ethereum",
  "devdoc": {
    "kind": "dev",
    "methods": {},
    "version": 1
  },
  "userdoc": {
    "kind": "user",
    "methods": {},
    "version": 1
  }
}