{
  "contractName": "TokenFarm",
  "abi": [
    {
      "inputs": [
        {
          "internalType": "contract DappToken",
          "name": "_dappToken",
          "type": "address"
        },
        {
          "internalType": "contract DaiToken",
          "name": "_daiToken",
          "type": "address"
        }
      ],
      "stateMutability": "nonpayable",
      "type": "constructor"
    },
    {
      "anonymous": false,
      "inputs": [
        {
          "indexed": false,
          "internalType": "uint256",
          "name": "amount",
          "type": "uint256"
        },
        {
          "indexed": false,
          "internalType": "uint256",
          "name": "lengthInDays",
          "type": "uint256"
        }
      ],
      "name": "AddRewards",
      "type": "event"
    },
    {
      "anonymous": false,
      "inputs": [
        {
          "indexed": true,
          "internalType": "address",
          "name": "user",
          "type": "address"
        },
        {
          "indexed": false,
          "internalType": "uint256",
          "name": "amount",
          "type": "uint256"
        }
      ],
      "name": "ClaimReward",
      "type": "event"
    },
    {
      "anonymous": false,
      "inputs": [
        {
          "indexed": true,
          "internalType": "address",
          "name": "user",
          "type": "address"
        },
        {
          "indexed": false,
          "internalType": "uint256",
          "name": "amount",
          "type": "uint256"
        }
      ],
      "name": "Deposit",
      "type": "event"
    },
    {
      "anonymous": false,
      "inputs": [
        {
          "indexed": true,
          "internalType": "address",
          "name": "user",
          "type": "address"
        },
        {
          "indexed": false,
          "internalType": "uint256",
          "name": "amount",
          "type": "uint256"
        }
      ],
      "name": "Withraw",
      "type": "event"
    },
    {
      "inputs": [],
      "name": "accumulatedRewardPerShare",
      "outputs": [
        {
          "internalType": "uint256",
          "name": "",
          "type": "uint256"
        }
      ],
      "stateMutability": "view",
      "type": "function",
      "constant": true
    },
    {
      "inputs": [],
      "name": "daiToken",
      "outputs": [
        {
          "internalType": "contract DaiToken",
          "name": "",
          "type": "address"
        }
      ],
      "stateMutability": "view",
      "type": "function",
      "constant": true
    },
    {
      "inputs": [],
      "name": "dappToken",
      "outputs": [
        {
          "internalType": "contract DappToken",
          "name": "",
          "type": "address"
        }
      ],
      "stateMutability": "view",
      "type": "function",
      "constant": true
    },
    {
      "inputs": [],
      "name": "lastRewardTimestamp",
      "outputs": [
        {
          "internalType": "uint256",
          "name": "",
          "type": "uint256"
        }
      ],
      "stateMutability": "view",
      "type": "function",
      "constant": true
    },
    {
      "inputs": [],
      "name": "name",
      "outputs": [
        {
          "internalType": "string",
          "name": "",
          "type": "string"
        }
      ],
      "stateMutability": "view",
      "type": "function",
      "constant": true
    },
    {
      "inputs": [],
      "name": "owner",
      "outputs": [
        {
          "internalType": "address",
          "name": "",
          "type": "address"
        }
      ],
      "stateMutability": "view",
      "type": "function",
      "constant": true
    },
    {
      "inputs": [],
      "name": "rewardPerSecond",
      "outputs": [
        {
          "internalType": "uint256",
          "name": "",
          "type": "uint256"
        }
      ],
      "stateMutability": "view",
      "type": "function",
      "constant": true
    },
    {
      "inputs": [],
      "name": "rewardPeriodEndTimestamp",
      "outputs": [
        {
          "internalType": "uint256",
          "name": "",
          "type": "uint256"
        }
      ],
      "stateMutability": "view",
      "type": "function",
      "constant": true
    },
    {
      "inputs": [],
      "name": "totalStaked",
      "outputs": [
        {
          "internalType": "uint256",
          "name": "",
          "type": "uint256"
        }
      ],
      "stateMutability": "view",
      "type": "function",
      "constant": true
    },
    {
      "inputs": [
        {
          "internalType": "uint256",
          "name": "_rewardsAmount",
          "type": "uint256"
        },
        {
          "internalType": "uint256",
          "name": "_lengthInDays",
          "type": "uint256"
        }
      ],
      "name": "addRewards",
      "outputs": [],
      "stateMutability": "nonpayable",
      "type": "function"
    },
    {
      "inputs": [],
      "name": "updateRewards",
      "outputs": [],
      "stateMutability": "nonpayable",
      "type": "function"
    },
    {
      "inputs": [
        {
          "internalType": "uint256",
          "name": "_amount",
          "type": "uint256"
        }
      ],
      "name": "deposit",
      "outputs": [],
      "stateMutability": "nonpayable",
      "type": "function"
    },
    {
      "inputs": [],
      "name": "unstakeTokens",
      "outputs": [],
      "stateMutability": "nonpayable",
      "type": "function"
    },
    {
      "inputs": [
        {
          "internalType": "address",
          "name": "_user",
          "type": "address"
        }
      ],
      "name": "pendingRewards",
      "outputs": [
        {
          "internalType": "uint256",
          "name": "",
          "type": "uint256"
        }
      ],
      "stateMutability": "view",
      "type": "function",
      "constant": true
    },
    {
      "inputs": [],
      "name": "getUserInfo",
      "outputs": [
        {
          "internalType": "uint256",
          "name": "_rewardPerSecond",
          "type": "uint256"
        },
        {
          "internalType": "uint256",
          "name": "_secondsLeft",
          "type": "uint256"
        },
        {
          "internalType": "uint256",
          "name": "_deposited",
          "type": "uint256"
        },
        {
          "internalType": "uint256",
          "name": "_pendingRewards",
          "type": "uint256"
        }
      ],
      "stateMutability": "view",
      "type": "function",
      "constant": true
    }
  ],
  "bytecode": "0x60806040526040518060400160405280600f81526020017f4461707020546f6b656e204661726d0000000000000000000000000000000000815250600090805190602001906200005192919062000150565b503480156200005f57600080fd5b5060405162001b9f38038062001b9f8339818101604052810190620000859190620002c3565b81600360006101000a81548173ffffffffffffffffffffffffffffffffffffffff021916908373ffffffffffffffffffffffffffffffffffffffff16021790555080600460006101000a81548173ffffffffffffffffffffffffffffffffffffffff021916908373ffffffffffffffffffffffffffffffffffffffff16021790555033600160006101000a81548173ffffffffffffffffffffffffffffffffffffffff021916908373ffffffffffffffffffffffffffffffffffffffff16021790555050506200036f565b8280546200015e9062000339565b90600052602060002090601f016020900481019282620001825760008555620001ce565b82601f106200019d57805160ff1916838001178555620001ce565b82800160010185558215620001ce579182015b82811115620001cd578251825591602001919060010190620001b0565b5b509050620001dd9190620001e1565b5090565b5b80821115620001fc576000816000905550600101620001e2565b5090565b600080fd5b600073ffffffffffffffffffffffffffffffffffffffff82169050919050565b6000620002328262000205565b9050919050565b6000620002468262000225565b9050919050565b620002588162000239565b81146200026457600080fd5b50565b60008151905062000278816200024d565b92915050565b60006200028b8262000225565b9050919050565b6200029d816200027e565b8114620002a957600080fd5b50565b600081519050620002bd8162000292565b92915050565b60008060408385031215620002dd57620002dc62000200565b5b6000620002ed8582860162000267565b92505060206200030085828601620002ac565b9150509250929050565b7f4e487b7100000000000000000000000000000000000000000000000000000000600052602260045260246000fd5b600060028204905060018216806200035257607f821691505b602082108114156200036957620003686200030a565b5b50919050565b611820806200037f6000396000f3fe608060405234801561001057600080fd5b5060043610610112576000357c0100000000000000000000000000000000000000000000000000000000900480638da5cb5b116100b4578063be22f54611610083578063be22f5461461024c578063cfc2b3201461026a578063f8077fae14610288578063fc41aa09146102a657610112565b80638da5cb5b146101ea5780638f10369a14610208578063a5ce413b14610226578063b6b55f251461023057610112565b80633e158b0c116100f05780633e158b0c146101835780635d8d15851461018d5780635eb186f8146101ae578063817b1cd2146101cc57610112565b806306fdde031461011757806331d7a2621461013557806336d4219514610165575b600080fd5b61011f6102c2565b60405161012c9190610efe565b60405180910390f35b61014f600480360381019061014a9190610f83565b610350565b60405161015c9190610fc9565b60405180910390f35b61016d6104b6565b60405161017a9190610fc9565b60405180910390f35b61018b6104bc565b005b6101956105a1565b6040516101a59493929190610fe4565b60405180910390f35b6101b6610638565b6040516101c39190611088565b60405180910390f35b6101d461065e565b6040516101e19190610fc9565b60405180910390f35b6101f2610664565b6040516101ff91906110b2565b60405180910390f35b61021061068a565b60405161021d9190610fc9565b60405180910390f35b61022e610690565b005b61024a600480360381019061024591906110f9565b610692565b005b610254610a6a565b6040516102619190611147565b60405180910390f35b610272610a90565b60405161027f9190610fc9565b60405180910390f35b610290610a96565b60405161029d9190610fc9565b60405180910390f35b6102c060048036038101906102bb9190611162565b610a9c565b005b600080546102cf906111d1565b80601f01602080910402602001604051908101604052809291908181526020018280546102fb906111d1565b80156103485780601f1061031d57610100808354040283529160200191610348565b820191906000526020600020905b81548152906001019060200180831161032b57829003601f168201915b505050505081565b600080600260008473ffffffffffffffffffffffffffffffffffffffff1673ffffffffffffffffffffffffffffffffffffffff168152602001908152602001600020905060006009549050600854421180156103b0575060065460085411155b80156103bf5750600060055414155b156104545760006006544211156103da5760065490506103de565b4290505b60006103f560085483610ced90919063ffffffff16565b9050600061040e60075483610d4690919063ffffffff16565b905061044e61043f60055461043164e8d4a5100085610d4690919063ffffffff16565b610db390919063ffffffff16565b85610e0c90919063ffffffff16565b93505050505b6104ad826001015461049f6298968061049164e8d4a51000610483878960000154610d4690919063ffffffff16565b610db390919063ffffffff16565b610db390919063ffffffff16565b610ced90919063ffffffff16565b92505050919050565b60095481565b60085442116104ca5761059f565b600060055414806104de5750600654600854115b156104ef574260088190555061059f565b6000600654421115610505576006549050610509565b4290505b600061052060085483610ced90919063ffffffff16565b9050600061053960075483610d4690919063ffffffff16565b905061057b61056a60055461055c64e8d4a5100085610d4690919063ffffffff16565b610db390919063ffffffff16565b600954610e0c90919063ffffffff16565b6009819055504260088190555060065442111561059b5760006007819055505b5050505b565b60008060008060065442116105e2576105c542600654610ced90919063ffffffff16565b92506105df62989680600754610db390919063ffffffff16565b93505b600260003373ffffffffffffffffffffffffffffffffffffffff1673ffffffffffffffffffffffffffffffffffffffff16815260200190815260200160002060000154915061063033610350565b905090919293565b600360009054906101000a900473ffffffffffffffffffffffffffffffffffffffff1681565b60055481565b600160009054906101000a900473ffffffffffffffffffffffffffffffffffffffff1681565b60075481565b565b6000600260003373ffffffffffffffffffffffffffffffffffffffff1673ffffffffffffffffffffffffffffffffffffffff16815260200190815260200160002090506106dd6104bc565b60008160000154111561089457600061074782600101546107396298968061072b64e8d4a5100061071d6009548960000154610d4690919063ffffffff16565b610db390919063ffffffff16565b610db390919063ffffffff16565b610ced90919063ffffffff16565b9050600360009054906101000a900473ffffffffffffffffffffffffffffffffffffffff1673ffffffffffffffffffffffffffffffffffffffff1663a9059cbb33836040518363ffffffff167c01000000000000000000000000000000000000000000000000000000000281526004016107c2929190611203565b6020604051808303816000875af11580156107e1573d6000803e3d6000fd5b505050506040513d601f19601f820116820180604052508101906108059190611264565b610844576040517f08c379a000000000000000000000000000000000000000000000000000000000815260040161083b906112dd565b60405180910390fd5b3373ffffffffffffffffffffffffffffffffffffffff167fba8de60c3403ec381d1d484652ea1980e3c3e56359195c92525bff4ce47ad98e8260405161088a9190610fc9565b60405180910390a2505b6108ab828260000154610e0c90919063ffffffff16565b81600001819055506108c882600554610e0c90919063ffffffff16565b6005819055506109136298968061090564e8d4a510006108f76009548660000154610d4690919063ffffffff16565b610db390919063ffffffff16565b610db390919063ffffffff16565b8160010181905550600460009054906101000a900473ffffffffffffffffffffffffffffffffffffffff1673ffffffffffffffffffffffffffffffffffffffff166323b872dd3330856040518463ffffffff167c0100000000000000000000000000000000000000000000000000000000028152600401610996939291906112fd565b6020604051808303816000875af11580156109b5573d6000803e3d6000fd5b505050506040513d601f19601f820116820180604052508101906109d99190611264565b610a18576040517f08c379a0000000000000000000000000000000000000000000000000000000008152600401610a0f90611380565b60405180910390fd5b3373ffffffffffffffffffffffffffffffffffffffff167fe1fffcc4923d04b559f4d29a8bfc6cda04eb5b0d3c460751c2402c5c5cc9109c83604051610a5e9190610fc9565b60405180910390a25050565b600460009054906101000a900473ffffffffffffffffffffffffffffffffffffffff1681565b60065481565b60085481565b600160009054906101000a900473ffffffffffffffffffffffffffffffffffffffff1673ffffffffffffffffffffffffffffffffffffffff163373ffffffffffffffffffffffffffffffffffffffff1614610af657600080fd5b6006544211610b3a576040517f08c379a0000000000000000000000000000000000000000000000000000000008152600401610b3190611412565b60405180910390fd5b610b426104bc565b610b6a610b5b6201518083610d4690919063ffffffff16565b42610e0c90919063ffffffff16565b600681905550610bad62015180610b9f83610b916298968087610d4690919063ffffffff16565b610db390919063ffffffff16565b610db390919063ffffffff16565b600781905550600360009054906101000a900473ffffffffffffffffffffffffffffffffffffffff1673ffffffffffffffffffffffffffffffffffffffff166323b872dd3330856040518463ffffffff167c0100000000000000000000000000000000000000000000000000000000028152600401610c2e939291906112fd565b6020604051808303816000875af1158015610c4d573d6000803e3d6000fd5b505050506040513d601f19601f82011682018060405250810190610c719190611264565b610cb0576040517f08c379a0000000000000000000000000000000000000000000000000000000008152600401610ca79061147e565b60405180910390fd5b7f035a6817755d9d163087d4649b27315908b801d1f5e33071a44f1fc0f7a871b38282604051610ce192919061149e565b60405180910390a15050565b6000828284610cfc91906114f6565b9150811115610d40576040517f08c379a0000000000000000000000000000000000000000000000000000000008152600401610d3790611576565b60405180910390fd5b92915050565b600080821480610d6e575082828385610d5f9190611596565b925082610d6c919061161f565b145b610dad576040517f08c379a0000000000000000000000000000000000000000000000000000000008152600401610da49061169c565b60405180910390fd5b92915050565b600080821415610df8576040517f08c379a0000000000000000000000000000000000000000000000000000000008152600401610def90611708565b60405180910390fd5b8183610e04919061161f565b905092915050565b6000828284610e1b9190611728565b9150811015610e5f576040517f08c379a0000000000000000000000000000000000000000000000000000000008152600401610e56906117ca565b60405180910390fd5b92915050565b600081519050919050565b600082825260208201905092915050565b60005b83811015610e9f578082015181840152602081019050610e84565b83811115610eae576000848401525b50505050565b6000601f19601f8301169050919050565b6000610ed082610e65565b610eda8185610e70565b9350610eea818560208601610e81565b610ef381610eb4565b840191505092915050565b60006020820190508181036000830152610f188184610ec5565b905092915050565b600080fd5b600073ffffffffffffffffffffffffffffffffffffffff82169050919050565b6000610f5082610f25565b9050919050565b610f6081610f45565b8114610f6b57600080fd5b50565b600081359050610f7d81610f57565b92915050565b600060208284031215610f9957610f98610f20565b5b6000610fa784828501610f6e565b91505092915050565b6000819050919050565b610fc381610fb0565b82525050565b6000602082019050610fde6000830184610fba565b92915050565b6000608082019050610ff96000830187610fba565b6110066020830186610fba565b6110136040830185610fba565b6110206060830184610fba565b95945050505050565b6000819050919050565b600061104e61104961104484610f25565b611029565b610f25565b9050919050565b600061106082611033565b9050919050565b600061107282611055565b9050919050565b61108281611067565b82525050565b600060208201905061109d6000830184611079565b92915050565b6110ac81610f45565b82525050565b60006020820190506110c760008301846110a3565b92915050565b6110d681610fb0565b81146110e157600080fd5b50565b6000813590506110f3816110cd565b92915050565b60006020828403121561110f5761110e610f20565b5b600061111d848285016110e4565b91505092915050565b600061113182611055565b9050919050565b61114181611126565b82525050565b600060208201905061115c6000830184611138565b92915050565b6000806040838503121561117957611178610f20565b5b6000611187858286016110e4565b9250506020611198858286016110e4565b9150509250929050565b7f4e487b7100000000000000000000000000000000000000000000000000000000600052602260045260246000fd5b600060028204905060018216806111e957607f821691505b602082108114156111fd576111fc6111a2565b5b50919050565b600060408201905061121860008301856110a3565b6112256020830184610fba565b9392505050565b60008115159050919050565b6112418161122c565b811461124c57600080fd5b50565b60008151905061125e81611238565b92915050565b60006020828403121561127a57611279610f20565b5b60006112888482850161124f565b91505092915050565b7f546f6b656e4661726d3a207472616e73666572206661696c7400000000000000600082015250565b60006112c7601983610e70565b91506112d282611291565b602082019050919050565b600060208201905081810360008301526112f6816112ba565b9050919050565b600060608201905061131260008301866110a3565b61131f60208301856110a3565b61132c6040830184610fba565b949350505050565b7f546f6b656e4661726d3a207472616e7366657246726f6d206661696c65640000600082015250565b600061136a601e83610e70565b915061137582611334565b602082019050919050565b600060208201905081810360008301526113998161135d565b9050919050565b7f546f6b656e4661726d3a2063616e27742061646420726577617264732062656660008201527f6f726520706572696f642066696e697368656400000000000000000000000000602082015250565b60006113fc603383610e70565b9150611407826113a0565b604082019050919050565b6000602082019050818103600083015261142b816113ef565b9050919050565b7f546f6b656e4661726d3a207472616e73666572206661696c6564000000000000600082015250565b6000611468601a83610e70565b915061147382611432565b602082019050919050565b600060208201905081810360008301526114978161145b565b9050919050565b60006040820190506114b36000830185610fba565b6114c06020830184610fba565b9392505050565b7f4e487b7100000000000000000000000000000000000000000000000000000000600052601160045260246000fd5b600061150182610fb0565b915061150c83610fb0565b92508282101561151f5761151e6114c7565b5b828203905092915050565b7f737562206f766572666c6f770000000000000000000000000000000000000000600082015250565b6000611560600c83610e70565b915061156b8261152a565b602082019050919050565b6000602082019050818103600083015261158f81611553565b9050919050565b60006115a182610fb0565b91506115ac83610fb0565b9250817fffffffffffffffffffffffffffffffffffffffffffffffffffffffffffffffff04831182151516156115e5576115e46114c7565b5b828202905092915050565b7f4e487b7100000000000000000000000000000000000000000000000000000000600052601260045260246000fd5b600061162a82610fb0565b915061163583610fb0565b925082611645576116446115f0565b5b828204905092915050565b7f6d756c206f766572666c6f770000000000000000000000000000000000000000600082015250565b6000611686600c83610e70565b915061169182611650565b602082019050919050565b600060208201905081810360008301526116b581611679565b9050919050565b7f696e76616c696420646976000000000000000000000000000000000000000000600082015250565b60006116f2600b83610e70565b91506116fd826116bc565b602082019050919050565b60006020820190508181036000830152611721816116e5565b9050919050565b600061173382610fb0565b915061173e83610fb0565b9250827fffffffffffffffffffffffffffffffffffffffffffffffffffffffffffffffff03821115611773576117726114c7565b5b828201905092915050565b7f616464206f766572666c6f770000000000000000000000000000000000000000600082015250565b60006117b4600c83610e70565b91506117bf8261177e565b602082019050919050565b600060208201905081810360008301526117e3816117a7565b905091905056fea26469706673582212206c45ac8d3141816b3c4a0e10b6ef8a89f121baeff652d7f8b8c0da9e8758b43a64736f6c634300080a0033",
  "immutableReferences": {},
  "source": "// SPDX-License-Identifier: MIT\npragma solidity >=0.4.22 <0.9.0;\n\nimport \"./DaiToken.sol\";\nimport \"./DappToken.sol\";\nimport \"./SafeMath.sol\";\n\ncontract TokenFarm {\n    using SafeMath for uint256;\n\n    string public name = \"Dapp Token Farm\";\n    address public owner;\n\n    struct UserInfo {\n        uint256 deposited;\n        uint256 rewardsAlreadyConsidered;\n    }\n\n    // mapping list of all stakers\n    mapping(address => UserInfo) users;\n\n    // reward token\n    DappToken public dappToken;\n\n    // deposit token\n    DaiToken public daiToken;\n\n    // total staked\n    uint256 public totalStaked;\n\n    //\n    uint256 public rewardPeriodEndTimestamp;\n    uint256 public rewardPerSecond;\n\n    // last time update reward\n    uint256 public lastRewardTimestamp;\n    uint256 public accumulatedRewardPerShare;\n\n    modifier onlyOwner() {\n        require(msg.sender == owner);\n        _;\n    }\n\n    event AddRewards(uint256 amount, uint256 lengthInDays);\n    event ClaimReward(address indexed user, uint256 amount);\n    event Deposit(address indexed user, uint256 amount);\n    event Withraw(address indexed user, uint256 amount);\n\n    constructor(DappToken _dappToken, DaiToken _daiToken) {\n        dappToken = _dappToken;\n        daiToken = _daiToken;\n        owner = msg.sender;\n    }\n\n    function addRewards(uint256 _rewardsAmount, uint256 _lengthInDays)\n        external\n        onlyOwner\n    {\n        require(\n            block.timestamp > rewardPeriodEndTimestamp,\n            \"TokenFarm: can't add rewards before period finished\"\n        );\n        updateRewards();\n        rewardPeriodEndTimestamp = block.timestamp.add(\n            _lengthInDays.mul(24 * 60 * 60)\n        );\n        rewardPerSecond = _rewardsAmount.mul(1e7).div(_lengthInDays).div(\n            24 * 60 * 60\n        );\n        require(\n            dappToken.transferFrom(msg.sender, address(this), _rewardsAmount),\n            \"TokenFarm: transfer failed\"\n        );\n        emit AddRewards(_rewardsAmount, _lengthInDays);\n    }\n\n    function updateRewards() public {\n        // no staking period active\n        if (block.timestamp <= lastRewardTimestamp) {\n            return;\n        }\n\n        // nobody staed - already updated rewards after staking ended.\n        if (\n            (totalStaked == 0) || lastRewardTimestamp > rewardPeriodEndTimestamp\n        ) {\n            lastRewardTimestamp = block.timestamp;\n            return;\n        }\n\n        uint256 endingTime;\n        if (block.timestamp > rewardPeriodEndTimestamp) {\n            endingTime = rewardPeriodEndTimestamp;\n        } else {\n            endingTime = block.timestamp;\n        }\n\n        uint256 secondsSinceLastRewardUpdate = endingTime.sub(\n            lastRewardTimestamp\n        );\n        uint256 totalReward = secondsSinceLastRewardUpdate.mul(rewardPerSecond);\n\n        accumulatedRewardPerShare = accumulatedRewardPerShare.add(\n            totalReward.mul(1e12).div(totalStaked)\n        );\n        lastRewardTimestamp = block.timestamp;\n\n        if (block.timestamp > rewardPeriodEndTimestamp) {\n            rewardPerSecond = 0;\n        }\n    }\n\n    //deposit: transfer the DAI token from the investor to this contract\n    function deposit(uint256 _amount) external {\n        UserInfo storage user = users[msg.sender];\n        updateRewards();\n\n        // reward for previous deposits\n        if (user.deposited > 0) {\n            uint256 pending = user\n                .deposited\n                .mul(accumulatedRewardPerShare)\n                .div(1e12)\n                .div(1e7)\n                .sub(user.rewardsAlreadyConsidered);\n\n            require(\n                dappToken.transfer(msg.sender, pending),\n                \"TokenFarm: transfer failt\"\n            );\n            emit ClaimReward(msg.sender, pending);\n        }\n\n        // deposit\n        user.deposited = user.deposited.add(_amount);\n        totalStaked = totalStaked.add(_amount);\n        user.rewardsAlreadyConsidered = user\n            .deposited\n            .mul(accumulatedRewardPerShare)\n            .div(1e12)\n            .div(1e7);\n        require(\n            daiToken.transferFrom(msg.sender, address(this), _amount),\n            \"TokenFarm: transferFrom failed\"\n        );\n        emit Deposit(msg.sender, _amount);\n    }\n\n    // Unstaking Tokens (Withdraw)\n    function unstakeTokens() public {\n        // // get staking balance for user\n        // uint256 balance = stakingBalance[msg.sender];\n        // // balance must more than 0\n        // require(balance > 0, \"staking balance cannot be 0\");\n        // // transfer staked tokens back to user\n        // daiToken.transfer(msg.sender, balance);\n        // totalStaked = totalStaked - balance;\n        // // reseting user staking balance\n        // stakingBalance[msg.sender] = 0;\n        // // updating staking status\n        // isStaking[msg.sender] = false;\n    }\n\n    function pendingRewards(address _user) public view returns(uint256) {\n        UserInfo storage user = users[_user];\n        uint256 accumulated = accumulatedRewardPerShare;\n        if (block.timestamp > lastRewardTimestamp && lastRewardTimestamp <= rewardPeriodEndTimestamp && totalStaked != 0) {\n            uint256 endingTime;\n            if (block.timestamp > rewardPeriodEndTimestamp) {\n                endingTime = rewardPeriodEndTimestamp;\n            } else {\n                endingTime = block.timestamp;\n            }\n            uint256 secondsSinceLastRewardUpdate = endingTime.sub(lastRewardTimestamp);\n            uint256 totalNewReward = secondsSinceLastRewardUpdate.mul(rewardPerSecond);\n            accumulated = accumulated.add(totalNewReward.mul(1e12).div(totalStaked));\n        }\n        return user.deposited.mul(accumulated).div(1e12).div(1e7).sub(user.rewardsAlreadyConsidered);  \n    }\n\n    function getUserInfo()\n        external\n        view\n        returns (\n            uint256 _rewardPerSecond,\n            uint256 _secondsLeft,\n            uint256 _deposited,\n            uint256 _pendingRewards\n        )\n    {\n        if (block.timestamp <= rewardPeriodEndTimestamp) {\n            _secondsLeft = rewardPeriodEndTimestamp.sub(block.timestamp);\n            _rewardPerSecond = rewardPerSecond.div(1e7);\n        }\n        _deposited = users[msg.sender].deposited;\n        _pendingRewards = pendingRewards(msg.sender);\n    }\n}\n",
  "sourcePath": "/home/ngocphuc/Documents/github.com/blockchain/eth-staking-dapp/contracts/TokenFarm.sol",
  "compiler": {
    "name": "solc",
    "version": "0.8.10+commit.fc410830.Emscripten.clang"
  },
  "schemaVersion": "3.4.3",
  "updatedAt": "2022-02-08T08:13:22.215Z",
  "networkType": "ethereum",
  "devdoc": {
    "kind": "dev",
    "methods": {},
    "version": 1
  },
  "userdoc": {
    "kind": "user",
    "methods": {},
    "version": 1
  }
}