{
  "contractName": "TokenFarm",
  "abi": [
    {
      "inputs": [
        {
          "internalType": "contract DappToken",
          "name": "_dappToken",
          "type": "address"
        },
        {
          "internalType": "contract DaiToken",
          "name": "_daiToken",
          "type": "address"
        }
      ],
      "stateMutability": "nonpayable",
      "type": "constructor"
    },
    {
      "anonymous": false,
      "inputs": [
        {
          "indexed": false,
          "internalType": "uint256",
          "name": "amount",
          "type": "uint256"
        },
        {
          "indexed": false,
          "internalType": "uint256",
          "name": "lengthInDays",
          "type": "uint256"
        }
      ],
      "name": "AddRewards",
      "type": "event"
    },
    {
      "anonymous": false,
      "inputs": [
        {
          "indexed": true,
          "internalType": "address",
          "name": "user",
          "type": "address"
        },
        {
          "indexed": false,
          "internalType": "uint256",
          "name": "amount",
          "type": "uint256"
        }
      ],
      "name": "ClaimReward",
      "type": "event"
    },
    {
      "anonymous": false,
      "inputs": [
        {
          "indexed": true,
          "internalType": "address",
          "name": "user",
          "type": "address"
        },
        {
          "indexed": false,
          "internalType": "uint256",
          "name": "amount",
          "type": "uint256"
        }
      ],
      "name": "Deposit",
      "type": "event"
    },
    {
      "anonymous": false,
      "inputs": [
        {
          "indexed": true,
          "internalType": "address",
          "name": "user",
          "type": "address"
        },
        {
          "indexed": false,
          "internalType": "uint256",
          "name": "amount",
          "type": "uint256"
        }
      ],
      "name": "Withraw",
      "type": "event"
    },
    {
      "inputs": [],
      "name": "accumulatedRewardPerShare",
      "outputs": [
        {
          "internalType": "uint256",
          "name": "",
          "type": "uint256"
        }
      ],
      "stateMutability": "view",
      "type": "function",
      "constant": true
    },
    {
      "inputs": [],
      "name": "daiToken",
      "outputs": [
        {
          "internalType": "contract DaiToken",
          "name": "",
          "type": "address"
        }
      ],
      "stateMutability": "view",
      "type": "function",
      "constant": true
    },
    {
      "inputs": [],
      "name": "dappToken",
      "outputs": [
        {
          "internalType": "contract DappToken",
          "name": "",
          "type": "address"
        }
      ],
      "stateMutability": "view",
      "type": "function",
      "constant": true
    },
    {
      "inputs": [],
      "name": "lastRewardTimestamp",
      "outputs": [
        {
          "internalType": "uint256",
          "name": "",
          "type": "uint256"
        }
      ],
      "stateMutability": "view",
      "type": "function",
      "constant": true
    },
    {
      "inputs": [],
      "name": "name",
      "outputs": [
        {
          "internalType": "string",
          "name": "",
          "type": "string"
        }
      ],
      "stateMutability": "view",
      "type": "function",
      "constant": true
    },
    {
      "inputs": [],
      "name": "owner",
      "outputs": [
        {
          "internalType": "address",
          "name": "",
          "type": "address"
        }
      ],
      "stateMutability": "view",
      "type": "function",
      "constant": true
    },
    {
      "inputs": [],
      "name": "rewardPerSecond",
      "outputs": [
        {
          "internalType": "uint256",
          "name": "",
          "type": "uint256"
        }
      ],
      "stateMutability": "view",
      "type": "function",
      "constant": true
    },
    {
      "inputs": [],
      "name": "rewardPeriodEndTimestamp",
      "outputs": [
        {
          "internalType": "uint256",
          "name": "",
          "type": "uint256"
        }
      ],
      "stateMutability": "view",
      "type": "function",
      "constant": true
    },
    {
      "inputs": [],
      "name": "totalStaked",
      "outputs": [
        {
          "internalType": "uint256",
          "name": "",
          "type": "uint256"
        }
      ],
      "stateMutability": "view",
      "type": "function",
      "constant": true
    },
    {
      "inputs": [
        {
          "internalType": "uint256",
          "name": "_rewardsAmount",
          "type": "uint256"
        },
        {
          "internalType": "uint256",
          "name": "_lengthInDays",
          "type": "uint256"
        }
      ],
      "name": "addRewards",
      "outputs": [],
      "stateMutability": "nonpayable",
      "type": "function"
    },
    {
      "inputs": [],
      "name": "updateRewards",
      "outputs": [],
      "stateMutability": "nonpayable",
      "type": "function"
    },
    {
      "inputs": [
        {
          "internalType": "uint256",
          "name": "_amount",
          "type": "uint256"
        }
      ],
      "name": "deposit",
      "outputs": [],
      "stateMutability": "nonpayable",
      "type": "function"
    },
    {
      "inputs": [
        {
          "internalType": "uint256",
          "name": "_amount",
          "type": "uint256"
        }
      ],
      "name": "withdraw",
      "outputs": [],
      "stateMutability": "nonpayable",
      "type": "function"
    },
    {
      "inputs": [],
      "name": "claim",
      "outputs": [],
      "stateMutability": "nonpayable",
      "type": "function"
    },
    {
      "inputs": [
        {
          "internalType": "address",
          "name": "_user",
          "type": "address"
        }
      ],
      "name": "pendingRewards",
      "outputs": [
        {
          "internalType": "uint256",
          "name": "",
          "type": "uint256"
        }
      ],
      "stateMutability": "view",
      "type": "function",
      "constant": true
    },
    {
      "inputs": [],
      "name": "getUserInfo",
      "outputs": [
        {
          "internalType": "uint256",
          "name": "_rewardPerSecond",
          "type": "uint256"
        },
        {
          "internalType": "uint256",
          "name": "_secondsLeft",
          "type": "uint256"
        },
        {
          "internalType": "uint256",
          "name": "_deposited",
          "type": "uint256"
        },
        {
          "internalType": "uint256",
          "name": "_pendingRewards",
          "type": "uint256"
        }
      ],
      "stateMutability": "view",
      "type": "function",
      "constant": true
    }
  ],
  "bytecode": "0x60806040526040518060400160405280600f81526020017f4461707020546f6b656e204661726d0000000000000000000000000000000000815250600090805190602001906200005192919062000150565b503480156200005f57600080fd5b50604051620023bb380380620023bb8339818101604052810190620000859190620002c3565b81600360006101000a81548173ffffffffffffffffffffffffffffffffffffffff021916908373ffffffffffffffffffffffffffffffffffffffff16021790555080600460006101000a81548173ffffffffffffffffffffffffffffffffffffffff021916908373ffffffffffffffffffffffffffffffffffffffff16021790555033600160006101000a81548173ffffffffffffffffffffffffffffffffffffffff021916908373ffffffffffffffffffffffffffffffffffffffff16021790555050506200036f565b8280546200015e9062000339565b90600052602060002090601f016020900481019282620001825760008555620001ce565b82601f106200019d57805160ff1916838001178555620001ce565b82800160010185558215620001ce579182015b82811115620001cd578251825591602001919060010190620001b0565b5b509050620001dd9190620001e1565b5090565b5b80821115620001fc576000816000905550600101620001e2565b5090565b600080fd5b600073ffffffffffffffffffffffffffffffffffffffff82169050919050565b6000620002328262000205565b9050919050565b6000620002468262000225565b9050919050565b620002588162000239565b81146200026457600080fd5b50565b60008151905062000278816200024d565b92915050565b60006200028b8262000225565b9050919050565b6200029d816200027e565b8114620002a957600080fd5b50565b600081519050620002bd8162000292565b92915050565b60008060408385031215620002dd57620002dc62000200565b5b6000620002ed8582860162000267565b92505060206200030085828601620002ac565b9150509250929050565b7f4e487b7100000000000000000000000000000000000000000000000000000000600052602260045260246000fd5b600060028204905060018216806200035257607f821691505b602082108114156200036957620003686200030a565b5b50919050565b61203c806200037f6000396000f3fe608060405234801561001057600080fd5b506004361061011d576000357c010000000000000000000000000000000000000000000000000000000090048063817b1cd2116100b4578063be22f54611610083578063be22f54614610273578063cfc2b32014610291578063f8077fae146102af578063fc41aa09146102cd5761011d565b8063817b1cd2146101fd5780638da5cb5b1461021b5780638f10369a14610239578063b6b55f25146102575761011d565b80633e158b0c116100f05780633e158b0c146101aa5780634e71d92d146101b45780635d8d1585146101be5780635eb186f8146101df5761011d565b806306fdde03146101225780632e1a7d4d1461014057806331d7a2621461015c57806336d421951461018c575b600080fd5b61012a6102e9565b604051610137919061158a565b60405180910390f35b61015a600480360381019061015591906115e7565b610377565b005b61017660048036038101906101719190611672565b610786565b60405161018391906116ae565b60405180910390f35b6101946108ec565b6040516101a191906116ae565b60405180910390f35b6101b26108f2565b005b6101bc6109d7565b005b6101c6610c2f565b6040516101d694939291906116c9565b60405180910390f35b6101e7610cc6565b6040516101f4919061176d565b60405180910390f35b610205610cec565b60405161021291906116ae565b60405180910390f35b610223610cf2565b6040516102309190611797565b60405180910390f35b610241610d18565b60405161024e91906116ae565b60405180910390f35b610271600480360381019061026c91906115e7565b610d1e565b005b61027b6110f6565b60405161028891906117d3565b60405180910390f35b61029961111c565b6040516102a691906116ae565b60405180910390f35b6102b7611122565b6040516102c491906116ae565b60405180910390f35b6102e760048036038101906102e291906117ee565b611128565b005b600080546102f69061185d565b80601f01602080910402602001604051908101604052809291908181526020018280546103229061185d565b801561036f5780601f106103445761010080835404028352916020019161036f565b820191906000526020600020905b81548152906001019060200180831161035257829003601f168201915b505050505081565b6000600260003373ffffffffffffffffffffffffffffffffffffffff1673ffffffffffffffffffffffffffffffffffffffff16815260200190815260200160002090508181600001541015610401576040517f08c379a00000000000000000000000000000000000000000000000000000000081526004016103f8906118db565b60405180910390fd5b6104096108f2565b600061046682600101546104586298968061044a64e8d4a5100061043c600954896000015461137990919063ffffffff16565b6113e690919063ffffffff16565b6113e690919063ffffffff16565b61143f90919063ffffffff16565b9050600360009054906101000a900473ffffffffffffffffffffffffffffffffffffffff1673ffffffffffffffffffffffffffffffffffffffff1663a9059cbb33836040518363ffffffff167c01000000000000000000000000000000000000000000000000000000000281526004016104e19291906118fb565b6020604051808303816000875af1158015610500573d6000803e3d6000fd5b505050506040513d601f19601f82011682018060405250810190610524919061195c565b610563576040517f08c379a000000000000000000000000000000000000000000000000000000000815260040161055a906119fb565b60405180910390fd5b3373ffffffffffffffffffffffffffffffffffffffff167fba8de60c3403ec381d1d484652ea1980e3c3e56359195c92525bff4ce47ad98e826040516105a991906116ae565b60405180910390a26105c883836000015461143f90919063ffffffff16565b82600001819055506105e58360055461143f90919063ffffffff16565b6005819055506106306298968061062264e8d4a51000610614600954876000015461137990919063ffffffff16565b6113e690919063ffffffff16565b6113e690919063ffffffff16565b8260010181905550600460009054906101000a900473ffffffffffffffffffffffffffffffffffffffff1673ffffffffffffffffffffffffffffffffffffffff1663a9059cbb33856040518363ffffffff167c01000000000000000000000000000000000000000000000000000000000281526004016106b19291906118fb565b6020604051808303816000875af11580156106d0573d6000803e3d6000fd5b505050506040513d601f19601f820116820180604052508101906106f4919061195c565b610733576040517f08c379a000000000000000000000000000000000000000000000000000000000815260040161072a90611a8d565b60405180910390fd5b3373ffffffffffffffffffffffffffffffffffffffff167f7a091cb75d8d5f5e7ecba428a87e35adb231681f6ee35c9fc6ce90966401ff5b8460405161077991906116ae565b60405180910390a2505050565b600080600260008473ffffffffffffffffffffffffffffffffffffffff1673ffffffffffffffffffffffffffffffffffffffff168152602001908152602001600020905060006009549050600854421180156107e6575060065460085411155b80156107f55750600060055414155b1561088a576000600654421115610810576006549050610814565b4290505b600061082b6008548361143f90919063ffffffff16565b905060006108446007548361137990919063ffffffff16565b905061088461087560055461086764e8d4a510008561137990919063ffffffff16565b6113e690919063ffffffff16565b8561149890919063ffffffff16565b93505050505b6108e382600101546108d5629896806108c764e8d4a510006108b987896000015461137990919063ffffffff16565b6113e690919063ffffffff16565b6113e690919063ffffffff16565b61143f90919063ffffffff16565b92505050919050565b60095481565b6008544211610900576109d5565b600060055414806109145750600654600854115b1561092557426008819055506109d5565b600060065442111561093b57600654905061093f565b4290505b60006109566008548361143f90919063ffffffff16565b9050600061096f6007548361137990919063ffffffff16565b90506109b16109a060055461099264e8d4a510008561137990919063ffffffff16565b6113e690919063ffffffff16565b60095461149890919063ffffffff16565b600981905550426008819055506006544211156109d15760006007819055505b5050505b565b6000600260003373ffffffffffffffffffffffffffffffffffffffff1673ffffffffffffffffffffffffffffffffffffffff1681526020019081526020016000209050600081600001541415610a2d5750610c2d565b610a356108f2565b6000610a928260010154610a8462989680610a7664e8d4a51000610a68600954896000015461137990919063ffffffff16565b6113e690919063ffffffff16565b6113e690919063ffffffff16565b61143f90919063ffffffff16565b9050600360009054906101000a900473ffffffffffffffffffffffffffffffffffffffff1673ffffffffffffffffffffffffffffffffffffffff1663a9059cbb33836040518363ffffffff167c0100000000000000000000000000000000000000000000000000000000028152600401610b0d9291906118fb565b6020604051808303816000875af1158015610b2c573d6000803e3d6000fd5b505050506040513d601f19601f82011682018060405250810190610b50919061195c565b610b8f576040517f08c379a0000000000000000000000000000000000000000000000000000000008152600401610b8690611af9565b60405180910390fd5b3373ffffffffffffffffffffffffffffffffffffffff167fba8de60c3403ec381d1d484652ea1980e3c3e56359195c92525bff4ce47ad98e82604051610bd591906116ae565b60405180910390a2610c2262989680610c1464e8d4a51000610c06600954876000015461137990919063ffffffff16565b6113e690919063ffffffff16565b6113e690919063ffffffff16565b826001018190555050505b565b6000806000806006544211610c7057610c534260065461143f90919063ffffffff16565b9250610c6d629896806007546113e690919063ffffffff16565b93505b600260003373ffffffffffffffffffffffffffffffffffffffff1673ffffffffffffffffffffffffffffffffffffffff168152602001908152602001600020600001549150610cbe33610786565b905090919293565b600360009054906101000a900473ffffffffffffffffffffffffffffffffffffffff1681565b60055481565b600160009054906101000a900473ffffffffffffffffffffffffffffffffffffffff1681565b60075481565b6000600260003373ffffffffffffffffffffffffffffffffffffffff1673ffffffffffffffffffffffffffffffffffffffff1681526020019081526020016000209050610d696108f2565b600081600001541115610f20576000610dd38260010154610dc562989680610db764e8d4a51000610da9600954896000015461137990919063ffffffff16565b6113e690919063ffffffff16565b6113e690919063ffffffff16565b61143f90919063ffffffff16565b9050600360009054906101000a900473ffffffffffffffffffffffffffffffffffffffff1673ffffffffffffffffffffffffffffffffffffffff1663a9059cbb33836040518363ffffffff167c0100000000000000000000000000000000000000000000000000000000028152600401610e4e9291906118fb565b6020604051808303816000875af1158015610e6d573d6000803e3d6000fd5b505050506040513d601f19601f82011682018060405250810190610e91919061195c565b610ed0576040517f08c379a0000000000000000000000000000000000000000000000000000000008152600401610ec790611b65565b60405180910390fd5b3373ffffffffffffffffffffffffffffffffffffffff167fba8de60c3403ec381d1d484652ea1980e3c3e56359195c92525bff4ce47ad98e82604051610f1691906116ae565b60405180910390a2505b610f3782826000015461149890919063ffffffff16565b8160000181905550610f548260055461149890919063ffffffff16565b600581905550610f9f62989680610f9164e8d4a51000610f83600954866000015461137990919063ffffffff16565b6113e690919063ffffffff16565b6113e690919063ffffffff16565b8160010181905550600460009054906101000a900473ffffffffffffffffffffffffffffffffffffffff1673ffffffffffffffffffffffffffffffffffffffff166323b872dd3330856040518463ffffffff167c010000000000000000000000000000000000000000000000000000000002815260040161102293929190611b85565b6020604051808303816000875af1158015611041573d6000803e3d6000fd5b505050506040513d601f19601f82011682018060405250810190611065919061195c565b6110a4576040517f08c379a000000000000000000000000000000000000000000000000000000000815260040161109b90611c08565b60405180910390fd5b3373ffffffffffffffffffffffffffffffffffffffff167fe1fffcc4923d04b559f4d29a8bfc6cda04eb5b0d3c460751c2402c5c5cc9109c836040516110ea91906116ae565b60405180910390a25050565b600460009054906101000a900473ffffffffffffffffffffffffffffffffffffffff1681565b60065481565b60085481565b600160009054906101000a900473ffffffffffffffffffffffffffffffffffffffff1673ffffffffffffffffffffffffffffffffffffffff163373ffffffffffffffffffffffffffffffffffffffff161461118257600080fd5b60065442116111c6576040517f08c379a00000000000000000000000000000000000000000000000000000000081526004016111bd90611c9a565b60405180910390fd5b6111ce6108f2565b6111f66111e7620151808361137990919063ffffffff16565b4261149890919063ffffffff16565b6006819055506112396201518061122b8361121d629896808761137990919063ffffffff16565b6113e690919063ffffffff16565b6113e690919063ffffffff16565b600781905550600360009054906101000a900473ffffffffffffffffffffffffffffffffffffffff1673ffffffffffffffffffffffffffffffffffffffff166323b872dd3330856040518463ffffffff167c01000000000000000000000000000000000000000000000000000000000281526004016112ba93929190611b85565b6020604051808303816000875af11580156112d9573d6000803e3d6000fd5b505050506040513d601f19601f820116820180604052508101906112fd919061195c565b61133c576040517f08c379a000000000000000000000000000000000000000000000000000000000815260040161133390611af9565b60405180910390fd5b7f035a6817755d9d163087d4649b27315908b801d1f5e33071a44f1fc0f7a871b3828260405161136d929190611cba565b60405180910390a15050565b6000808214806113a15750828283856113929190611d12565b92508261139f9190611d9b565b145b6113e0576040517f08c379a00000000000000000000000000000000000000000000000000000000081526004016113d790611e18565b60405180910390fd5b92915050565b60008082141561142b576040517f08c379a000000000000000000000000000000000000000000000000000000000815260040161142290611e84565b60405180910390fd5b81836114379190611d9b565b905092915050565b600082828461144e9190611ea4565b9150811115611492576040517f08c379a000000000000000000000000000000000000000000000000000000000815260040161148990611f24565b60405180910390fd5b92915050565b60008282846114a79190611f44565b91508110156114eb576040517f08c379a00000000000000000000000000000000000000000000000000000000081526004016114e290611fe6565b60405180910390fd5b92915050565b600081519050919050565b600082825260208201905092915050565b60005b8381101561152b578082015181840152602081019050611510565b8381111561153a576000848401525b50505050565b6000601f19601f8301169050919050565b600061155c826114f1565b61156681856114fc565b935061157681856020860161150d565b61157f81611540565b840191505092915050565b600060208201905081810360008301526115a48184611551565b905092915050565b600080fd5b6000819050919050565b6115c4816115b1565b81146115cf57600080fd5b50565b6000813590506115e1816115bb565b92915050565b6000602082840312156115fd576115fc6115ac565b5b600061160b848285016115d2565b91505092915050565b600073ffffffffffffffffffffffffffffffffffffffff82169050919050565b600061163f82611614565b9050919050565b61164f81611634565b811461165a57600080fd5b50565b60008135905061166c81611646565b92915050565b600060208284031215611688576116876115ac565b5b60006116968482850161165d565b91505092915050565b6116a8816115b1565b82525050565b60006020820190506116c3600083018461169f565b92915050565b60006080820190506116de600083018761169f565b6116eb602083018661169f565b6116f8604083018561169f565b611705606083018461169f565b95945050505050565b6000819050919050565b600061173361172e61172984611614565b61170e565b611614565b9050919050565b600061174582611718565b9050919050565b60006117578261173a565b9050919050565b6117678161174c565b82525050565b6000602082019050611782600083018461175e565b92915050565b61179181611634565b82525050565b60006020820190506117ac6000830184611788565b92915050565b60006117bd8261173a565b9050919050565b6117cd816117b2565b82525050565b60006020820190506117e860008301846117c4565b92915050565b60008060408385031215611805576118046115ac565b5b6000611813858286016115d2565b9250506020611824858286016115d2565b9150509250929050565b7f4e487b7100000000000000000000000000000000000000000000000000000000600052602260045260246000fd5b6000600282049050600182168061187557607f821691505b602082108114156118895761188861182e565b5b50919050565b7f546f6b656e4661726d3a2062616c616e6365206e6f7420656e6f756768000000600082015250565b60006118c5601d836114fc565b91506118d08261188f565b602082019050919050565b600060208201905081810360008301526118f4816118b8565b9050919050565b60006040820190506119106000830185611788565b61191d602083018461169f565b9392505050565b60008115159050919050565b61193981611924565b811461194457600080fd5b50565b60008151905061195681611930565b92915050565b600060208284031215611972576119716115ac565b5b600061198084828501611947565b91505092915050565b7f546f6b656e4672616d3a20726577617264207472616e73666572206661696c6560008201527f6400000000000000000000000000000000000000000000000000000000000000602082015250565b60006119e56021836114fc565b91506119f082611989565b604082019050919050565b60006020820190508181036000830152611a14816119d8565b9050919050565b7f546f6b656e4661726d3a20646573706f7369742077697468647261772066616960008201527f6c65640000000000000000000000000000000000000000000000000000000000602082015250565b6000611a776023836114fc565b9150611a8282611a1b565b604082019050919050565b60006020820190508181036000830152611aa681611a6a565b9050919050565b7f546f6b656e4661726d3a207472616e73666572206661696c6564000000000000600082015250565b6000611ae3601a836114fc565b9150611aee82611aad565b602082019050919050565b60006020820190508181036000830152611b1281611ad6565b9050919050565b7f546f6b656e4661726d3a207472616e73666572206661696c7400000000000000600082015250565b6000611b4f6019836114fc565b9150611b5a82611b19565b602082019050919050565b60006020820190508181036000830152611b7e81611b42565b9050919050565b6000606082019050611b9a6000830186611788565b611ba76020830185611788565b611bb4604083018461169f565b949350505050565b7f546f6b656e4661726d3a207472616e7366657246726f6d206661696c65640000600082015250565b6000611bf2601e836114fc565b9150611bfd82611bbc565b602082019050919050565b60006020820190508181036000830152611c2181611be5565b9050919050565b7f546f6b656e4661726d3a2063616e27742061646420726577617264732062656660008201527f6f726520706572696f642066696e697368656400000000000000000000000000602082015250565b6000611c846033836114fc565b9150611c8f82611c28565b604082019050919050565b60006020820190508181036000830152611cb381611c77565b9050919050565b6000604082019050611ccf600083018561169f565b611cdc602083018461169f565b9392505050565b7f4e487b7100000000000000000000000000000000000000000000000000000000600052601160045260246000fd5b6000611d1d826115b1565b9150611d28836115b1565b9250817fffffffffffffffffffffffffffffffffffffffffffffffffffffffffffffffff0483118215151615611d6157611d60611ce3565b5b828202905092915050565b7f4e487b7100000000000000000000000000000000000000000000000000000000600052601260045260246000fd5b6000611da6826115b1565b9150611db1836115b1565b925082611dc157611dc0611d6c565b5b828204905092915050565b7f6d756c206f766572666c6f770000000000000000000000000000000000000000600082015250565b6000611e02600c836114fc565b9150611e0d82611dcc565b602082019050919050565b60006020820190508181036000830152611e3181611df5565b9050919050565b7f696e76616c696420646976000000000000000000000000000000000000000000600082015250565b6000611e6e600b836114fc565b9150611e7982611e38565b602082019050919050565b60006020820190508181036000830152611e9d81611e61565b9050919050565b6000611eaf826115b1565b9150611eba836115b1565b925082821015611ecd57611ecc611ce3565b5b828203905092915050565b7f737562206f766572666c6f770000000000000000000000000000000000000000600082015250565b6000611f0e600c836114fc565b9150611f1982611ed8565b602082019050919050565b60006020820190508181036000830152611f3d81611f01565b9050919050565b6000611f4f826115b1565b9150611f5a836115b1565b9250827fffffffffffffffffffffffffffffffffffffffffffffffffffffffffffffffff03821115611f8f57611f8e611ce3565b5b828201905092915050565b7f616464206f766572666c6f770000000000000000000000000000000000000000600082015250565b6000611fd0600c836114fc565b9150611fdb82611f9a565b602082019050919050565b60006020820190508181036000830152611fff81611fc3565b905091905056fea2646970667358221220da721f59f6216f3a2285c72ec2fb18694c93301bb2f3924674e3fdd78233a29264736f6c634300080a0033",
  "immutableReferences": {},
  "source": "// SPDX-License-Identifier: MIT\npragma solidity >=0.4.22 <0.9.0;\n\nimport \"./DaiToken.sol\";\nimport \"./DappToken.sol\";\nimport \"./SafeMath.sol\";\n\ncontract TokenFarm {\n    using SafeMath for uint256;\n\n    string public name = \"Dapp Token Farm\";\n    address public owner;\n\n    struct UserInfo {\n        uint256 deposited;\n        uint256 rewardsAlreadyConsidered;\n    }\n\n    // mapping list of all stakers\n    mapping(address => UserInfo) users;\n\n    // reward token\n    DappToken public dappToken;\n\n    // deposit token\n    DaiToken public daiToken;\n\n    // total staked\n    uint256 public totalStaked;\n\n    //\n    uint256 public rewardPeriodEndTimestamp;\n    uint256 public rewardPerSecond;\n\n    // last time update reward\n    uint256 public lastRewardTimestamp;\n    uint256 public accumulatedRewardPerShare;\n\n    modifier onlyOwner() {\n        require(msg.sender == owner);\n        _;\n    }\n\n    event AddRewards(uint256 amount, uint256 lengthInDays);\n    event ClaimReward(address indexed user, uint256 amount);\n    event Deposit(address indexed user, uint256 amount);\n    event Withraw(address indexed user, uint256 amount);\n\n    constructor(DappToken _dappToken, DaiToken _daiToken) {\n        dappToken = _dappToken;\n        daiToken = _daiToken;\n        owner = msg.sender;\n    }\n\n    function addRewards(uint256 _rewardsAmount, uint256 _lengthInDays)\n        external\n        onlyOwner\n    {\n        require(\n            block.timestamp > rewardPeriodEndTimestamp,\n            \"TokenFarm: can't add rewards before period finished\"\n        );\n        updateRewards();\n        rewardPeriodEndTimestamp = block.timestamp.add(\n            _lengthInDays.mul(24 * 60 * 60)\n        );\n        rewardPerSecond = _rewardsAmount.mul(1e7).div(_lengthInDays).div(\n            24 * 60 * 60\n        );\n        require(\n            dappToken.transferFrom(msg.sender, address(this), _rewardsAmount),\n            \"TokenFarm: transfer failed\"\n        );\n        emit AddRewards(_rewardsAmount, _lengthInDays);\n    }\n\n    function updateRewards() public {\n        // no staking period active\n        if (block.timestamp <= lastRewardTimestamp) {\n            return;\n        }\n\n        // nobody staed - already updated rewards after staking ended.\n        if (\n            (totalStaked == 0) || lastRewardTimestamp > rewardPeriodEndTimestamp\n        ) {\n            lastRewardTimestamp = block.timestamp;\n            return;\n        }\n\n        uint256 endingTime;\n        if (block.timestamp > rewardPeriodEndTimestamp) {\n            endingTime = rewardPeriodEndTimestamp;\n        } else {\n            endingTime = block.timestamp;\n        }\n\n        uint256 secondsSinceLastRewardUpdate = endingTime.sub(\n            lastRewardTimestamp\n        );\n        uint256 totalReward = secondsSinceLastRewardUpdate.mul(rewardPerSecond);\n\n        accumulatedRewardPerShare = accumulatedRewardPerShare.add(\n            totalReward.mul(1e12).div(totalStaked)\n        );\n        lastRewardTimestamp = block.timestamp;\n\n        if (block.timestamp > rewardPeriodEndTimestamp) {\n            rewardPerSecond = 0;\n        }\n    }\n\n    //deposit: transfer the DAI token from the investor to this contract\n    function deposit(uint256 _amount) external {\n        UserInfo storage user = users[msg.sender];\n        updateRewards();\n\n        // reward for previous deposits\n        if (user.deposited > 0) {\n            uint256 pending = user\n                .deposited\n                .mul(accumulatedRewardPerShare)\n                .div(1e12)\n                .div(1e7)\n                .sub(user.rewardsAlreadyConsidered);\n\n            require(\n                dappToken.transfer(msg.sender, pending),\n                \"TokenFarm: transfer failt\"\n            );\n            emit ClaimReward(msg.sender, pending);\n        }\n\n        // deposit\n        user.deposited = user.deposited.add(_amount);\n        totalStaked = totalStaked.add(_amount);\n        user.rewardsAlreadyConsidered = user\n            .deposited\n            .mul(accumulatedRewardPerShare)\n            .div(1e12)\n            .div(1e7);\n        require(\n            daiToken.transferFrom(msg.sender, address(this), _amount),\n            \"TokenFarm: transferFrom failed\"\n        );\n        emit Deposit(msg.sender, _amount);\n    }\n\n    // withdraw\n    function withdraw(uint256 _amount) external {\n        UserInfo storage user = users[msg.sender];\n        require(user.deposited >= _amount, \"TokenFarm: balance not enough\");\n        updateRewards();\n        // send reward\n        uint256 pendingReward = user\n            .deposited\n            .mul(accumulatedRewardPerShare)\n            .div(1e12)\n            .div(1e7)\n            .sub(user.rewardsAlreadyConsidered);\n        require(\n            dappToken.transfer(msg.sender, pendingReward),\n            \"TokenFram: reward transfer failed\"\n        );\n        emit ClaimReward(msg.sender, pendingReward);\n\n        // withdraw tokens\n        user.deposited = user.deposited.sub(_amount);\n        totalStaked = totalStaked.sub(_amount);\n        user.rewardsAlreadyConsidered = user\n            .deposited\n            .mul(accumulatedRewardPerShare)\n            .div(1e12)\n            .div(1e7);\n        require(\n            daiToken.transfer(msg.sender, _amount),\n            \"TokenFarm: desposit withdraw failed\"\n        );\n        emit Withraw(msg.sender, _amount);\n    }\n\n    // claim reward\n    function claim() external {\n        UserInfo storage user = users[msg.sender];\n        if (user.deposited == 0) {\n            return;\n        }\n        updateRewards();\n        uint256 pendingReward = user\n            .deposited\n            .mul(accumulatedRewardPerShare)\n            .div(1e12)\n            .div(1e7)\n            .sub(user.rewardsAlreadyConsidered);\n        require(\n            dappToken.transfer(msg.sender, pendingReward),\n            \"TokenFarm: transfer failed\"\n        );\n        emit ClaimReward(msg.sender, pendingReward);\n        user.rewardsAlreadyConsidered = user\n            .deposited\n            .mul(accumulatedRewardPerShare)\n            .div(1e12)\n            .div(1e7);\n    }\n\n    function pendingRewards(address _user) public view returns (uint256) {\n        UserInfo storage user = users[_user];\n        uint256 accumulated = accumulatedRewardPerShare;\n        if (\n            block.timestamp > lastRewardTimestamp &&\n            lastRewardTimestamp <= rewardPeriodEndTimestamp &&\n            totalStaked != 0\n        ) {\n            uint256 endingTime;\n            if (block.timestamp > rewardPeriodEndTimestamp) {\n                endingTime = rewardPeriodEndTimestamp;\n            } else {\n                endingTime = block.timestamp;\n            }\n            uint256 secondsSinceLastRewardUpdate = endingTime.sub(\n                lastRewardTimestamp\n            );\n            uint256 totalNewReward = secondsSinceLastRewardUpdate.mul(\n                rewardPerSecond\n            );\n            accumulated = accumulated.add(\n                totalNewReward.mul(1e12).div(totalStaked)\n            );\n        }\n        return\n            user.deposited.mul(accumulated).div(1e12).div(1e7).sub(\n                user.rewardsAlreadyConsidered\n            );\n    }\n\n    function getUserInfo()\n        external\n        view\n        returns (\n            uint256 _rewardPerSecond,\n            uint256 _secondsLeft,\n            uint256 _deposited,\n            uint256 _pendingRewards\n        )\n    {\n        if (block.timestamp <= rewardPeriodEndTimestamp) {\n            _secondsLeft = rewardPeriodEndTimestamp.sub(block.timestamp);\n            _rewardPerSecond = rewardPerSecond.div(1e7);\n        }\n        _deposited = users[msg.sender].deposited;\n        _pendingRewards = pendingRewards(msg.sender);\n    }\n}\n",
  "sourcePath": "/home/ngocphuc/Documents/github.com/blockchain/eth-staking-dapp/contracts/TokenFarm.sol",
  "compiler": {
    "name": "solc",
    "version": "0.8.10+commit.fc410830.Emscripten.clang"
  },
  "schemaVersion": "3.4.3",
  "updatedAt": "2022-02-08T17:05:49.425Z",
  "networkType": "ethereum",
  "devdoc": {
    "kind": "dev",
    "methods": {},
    "version": 1
  },
  "userdoc": {
    "kind": "user",
    "methods": {},
    "version": 1
  }
}